{
  "contractName": "TokenFarm",
  "abi": [
    {
      "inputs": [
        {
          "internalType": "contract UsiToken",
          "name": "_usiToken",
          "type": "address"
        },
        {
          "internalType": "contract DaiToken",
          "name": "_daiToken",
          "type": "address"
        }
      ],
      "payable": false,
      "stateMutability": "nonpayable",
      "type": "constructor"
    },
    {
      "constant": true,
      "inputs": [],
      "name": "daiToken",
      "outputs": [
        {
          "internalType": "contract DaiToken",
          "name": "",
          "type": "address"
        }
      ],
      "payable": false,
      "stateMutability": "view",
      "type": "function"
    },
    {
      "constant": true,
      "inputs": [
        {
          "internalType": "address",
          "name": "",
          "type": "address"
        }
      ],
      "name": "hasStaked",
      "outputs": [
        {
          "internalType": "bool",
          "name": "",
          "type": "bool"
        }
      ],
      "payable": false,
      "stateMutability": "view",
      "type": "function"
    },
    {
      "constant": true,
      "inputs": [
        {
          "internalType": "address",
          "name": "",
          "type": "address"
        }
      ],
      "name": "isStaking",
      "outputs": [
        {
          "internalType": "bool",
          "name": "",
          "type": "bool"
        }
      ],
      "payable": false,
      "stateMutability": "view",
      "type": "function"
    },
    {
      "constant": true,
      "inputs": [],
      "name": "name",
      "outputs": [
        {
          "internalType": "string",
          "name": "",
          "type": "string"
        }
      ],
      "payable": false,
      "stateMutability": "view",
      "type": "function"
    },
    {
      "constant": true,
      "inputs": [],
      "name": "owner",
      "outputs": [
        {
          "internalType": "address",
          "name": "",
          "type": "address"
        }
      ],
      "payable": false,
      "stateMutability": "view",
      "type": "function"
    },
    {
      "constant": true,
      "inputs": [
        {
          "internalType": "uint256",
          "name": "",
          "type": "uint256"
        }
      ],
      "name": "stakers",
      "outputs": [
        {
          "internalType": "address",
          "name": "",
          "type": "address"
        }
      ],
      "payable": false,
      "stateMutability": "view",
      "type": "function"
    },
    {
      "constant": true,
      "inputs": [
        {
          "internalType": "address",
          "name": "",
          "type": "address"
        }
      ],
      "name": "stakingBalance",
      "outputs": [
        {
          "internalType": "uint256",
          "name": "",
          "type": "uint256"
        }
      ],
      "payable": false,
      "stateMutability": "view",
      "type": "function"
    },
    {
      "constant": true,
      "inputs": [
        {
          "internalType": "address",
          "name": "",
          "type": "address"
        }
      ],
      "name": "totalObtained",
      "outputs": [
        {
          "internalType": "uint256",
          "name": "",
          "type": "uint256"
        }
      ],
      "payable": false,
      "stateMutability": "view",
      "type": "function"
    },
    {
      "constant": true,
      "inputs": [],
      "name": "usiToken",
      "outputs": [
        {
          "internalType": "contract UsiToken",
          "name": "",
          "type": "address"
        }
      ],
      "payable": false,
      "stateMutability": "view",
      "type": "function"
    },
    {
      "constant": true,
      "inputs": [
        {
          "internalType": "address",
          "name": "_add",
          "type": "address"
        }
      ],
      "name": "getItems",
      "outputs": [
        {
          "internalType": "uint256[]",
          "name": "",
          "type": "uint256[]"
        }
      ],
      "payable": false,
      "stateMutability": "view",
      "type": "function"
    },
    {
      "constant": true,
      "inputs": [
        {
          "internalType": "address",
          "name": "_add",
          "type": "address"
        }
      ],
      "name": "getAnswers",
      "outputs": [
        {
          "internalType": "string[]",
          "name": "",
          "type": "string[]"
        }
      ],
      "payable": false,
      "stateMutability": "view",
      "type": "function"
    },
    {
      "constant": false,
      "inputs": [
        {
          "internalType": "uint256",
          "name": "_amount",
          "type": "uint256"
        }
      ],
      "name": "stakeTokens",
      "outputs": [],
      "payable": false,
      "stateMutability": "nonpayable",
      "type": "function"
    },
    {
      "constant": false,
      "inputs": [],
      "name": "unstakeTokens",
      "outputs": [],
      "payable": false,
      "stateMutability": "nonpayable",
      "type": "function"
    },
    {
      "constant": false,
      "inputs": [
        {
          "internalType": "uint256",
          "name": "_amount",
          "type": "uint256"
        }
      ],
      "name": "unstakeNTokens",
      "outputs": [],
      "payable": false,
      "stateMutability": "nonpayable",
      "type": "function"
    },
    {
      "constant": false,
      "inputs": [],
      "name": "issueTokens",
      "outputs": [],
      "payable": false,
      "stateMutability": "nonpayable",
      "type": "function"
    },
    {
      "constant": false,
      "inputs": [
        {
          "internalType": "uint256",
          "name": "_price",
          "type": "uint256"
        }
      ],
      "name": "buyItem",
      "outputs": [],
      "payable": false,
      "stateMutability": "nonpayable",
      "type": "function"
    },
    {
      "constant": false,
      "inputs": [
        {
          "internalType": "uint256",
          "name": "_id",
          "type": "uint256"
        },
        {
          "internalType": "uint256",
          "name": "_price",
          "type": "uint256"
        }
      ],
      "name": "buyNewItem",
      "outputs": [],
      "payable": false,
      "stateMutability": "nonpayable",
      "type": "function"
    },
    {
      "constant": false,
      "inputs": [
        {
          "internalType": "string",
          "name": "_ans1",
          "type": "string"
        },
        {
          "internalType": "string",
          "name": "_ans2",
          "type": "string"
        },
        {
          "internalType": "string",
          "name": "_ans3",
          "type": "string"
        }
      ],
      "name": "completeSurvey",
      "outputs": [],
      "payable": false,
      "stateMutability": "nonpayable",
      "type": "function"
    }
  ],
  "bytecode": "0x60806040526040518060400160405280600e81526020017f55534920546f6b656e206661726d000000000000000000000000000000000000815250600090805190602001906200005192919062000150565b503480156200005f57600080fd5b506040516200243e3803806200243e83398181016040526200008591908101906200022d565b80600160006101000a81548173ffffffffffffffffffffffffffffffffffffffff021916908373ffffffffffffffffffffffffffffffffffffffff16021790555081600260006101000a81548173ffffffffffffffffffffffffffffffffffffffff021916908373ffffffffffffffffffffffffffffffffffffffff16021790555033600360006101000a81548173ffffffffffffffffffffffffffffffffffffffff021916908373ffffffffffffffffffffffffffffffffffffffff1602179055505050620002fe565b828054600181600116156101000203166002900490600052602060002090601f016020900481019282601f106200019357805160ff1916838001178555620001c4565b82800160010185558215620001c4579182015b82811115620001c3578251825591602001919060010190620001a6565b5b509050620001d39190620001d7565b5090565b620001fc91905b80821115620001f8576000816000905550600101620001de565b5090565b90565b6000815190506200021081620002ca565b92915050565b6000815190506200022781620002e4565b92915050565b600080604083850312156200024157600080fd5b6000620002518582860162000216565b92505060206200026485828601620001ff565b9150509250929050565b60006200027b82620002aa565b9050919050565b60006200028f826200026e565b9050919050565b6000620002a3826200026e565b9050919050565b600073ffffffffffffffffffffffffffffffffffffffff82169050919050565b620002d58162000282565b8114620002e157600080fd5b50565b620002ef8162000296565b8114620002fb57600080fd5b50565b612130806200030e6000396000f3fe608060405234801561001057600080fd5b50600436106101165760003560e01c80638da5cb5b116100a2578063be22f54611610071578063be22f546146102cd578063c93c8f34146102eb578063cdb5b8de1461031b578063e7fb74c714610337578063fd5e6dd11461035357610116565b80638da5cb5b146102575780639831309614610275578063a5ce413b146102a5578063b160a016146102af57610116565b806360ab5852116100e957806360ab5852146101b557806360e9280b146101bf57806365c199c9146101db5780636f49712b1461020b5780637547c7a31461023b57610116565b806306fdde031461011b57806332d50e021461013957806345bc78ab146101555780634d73665514610185575b600080fd5b610123610383565b6040516101309190611dc8565b60405180910390f35b610153600480360361014e9190810190611817565b610421565b005b61016f600480360361016a91908101906117c5565b6106ae565b60405161017c9190611e6a565b60405180910390f35b61019f600480360361019a91908101906117c5565b6106c6565b6040516101ac9190611d55565b60405180910390f35b6101bd610760565b005b6101d960048036036101d49190810190611900565b6109e8565b005b6101f560048036036101f091908101906117c5565b610bc0565b6040516102029190611e6a565b60405180910390f35b610225600480360361022091908101906117c5565b610bd8565b6040516102329190611d77565b60405180910390f35b610255600480360361025091908101906118ae565b610bf8565b005b61025f610edd565b60405161026c9190611c4b565b60405180910390f35b61028f600480360361028a91908101906117c5565b610f03565b60405161029c9190611d33565b60405180910390f35b6102ad61102e565b005b6102b7611205565b6040516102c49190611dad565b60405180910390f35b6102d561122b565b6040516102e29190611d92565b60405180910390f35b610305600480360361030091908101906117c5565b611251565b6040516103129190611d77565b60405180910390f35b610335600480360361033091908101906118ae565b611271565b005b610351600480360361034c91908101906118ae565b6114d1565b005b61036d600480360361036891908101906118ae565b61163c565b60405161037a9190611c4b565b60405180910390f35b60008054600181600116156101000203166002900480601f0160208091040260200160405190810160405280929190818152602001828054600181600116156101000203166002900480156104195780601f106103ee57610100808354040283529160200191610419565b820191906000526020600020905b8154815290600101906020018083116103fc57829003601f168201915b505050505081565b6000600a60003373ffffffffffffffffffffffffffffffffffffffff1673ffffffffffffffffffffffffffffffffffffffff168152602001908152602001600020600001805490501461047357600080fd5b600a60003373ffffffffffffffffffffffffffffffffffffffff1673ffffffffffffffffffffffffffffffffffffffff1681526020019081526020016000206000018390806001815401808255809150509060018203906000526020600020016000909192909190915090805190602001906104f0929190611678565b5050600a60003373ffffffffffffffffffffffffffffffffffffffff1673ffffffffffffffffffffffffffffffffffffffff16815260200190815260200160002060000182908060018154018082558091505090600182039060005260206000200160009091929091909150908051906020019061056f929190611678565b5050600a60003373ffffffffffffffffffffffffffffffffffffffff1673ffffffffffffffffffffffffffffffffffffffff1681526020019081526020016000206000018190806001815401808255809150509060018203906000526020600020016000909192909190915090805190602001906105ee929190611678565b5050600260009054906101000a900473ffffffffffffffffffffffffffffffffffffffff1673ffffffffffffffffffffffffffffffffffffffff1663a9059cbb3368056bc75e2d631000006040518363ffffffff1660e01b8152600401610656929190611cb8565b602060405180830381600087803b15801561067057600080fd5b505af1158015610684573d6000803e3d6000fd5b505050506040513d601f19601f820116820180604052506106a891908101906117ee565b50505050565b60056020528060005260406000206000915090505481565b6060600960008373ffffffffffffffffffffffffffffffffffffffff1673ffffffffffffffffffffffffffffffffffffffff16815260200190815260200160002060000180548060200260200160405190810160405280929190818152602001828054801561075457602002820191906000526020600020905b815481526020019060010190808311610740575b50505050509050919050565b600360009054906101000a900473ffffffffffffffffffffffffffffffffffffffff1673ffffffffffffffffffffffffffffffffffffffff163373ffffffffffffffffffffffffffffffffffffffff16146107f0576040517f08c379a00000000000000000000000000000000000000000000000000000000081526004016107e790611dea565b60405180910390fd5b60008090505b6004805490508110156109e55760006004828154811061081257fe5b9060005260206000200160009054906101000a900473ffffffffffffffffffffffffffffffffffffffff1690506000600560008373ffffffffffffffffffffffffffffffffffffffff1673ffffffffffffffffffffffffffffffffffffffff16815260200190815260200160002054905060008111156109d657600260009054906101000a900473ffffffffffffffffffffffffffffffffffffffff1673ffffffffffffffffffffffffffffffffffffffff1663a9059cbb83600284816108d557fe5b046040518363ffffffff1660e01b81526004016108f3929190611d0a565b602060405180830381600087803b15801561090d57600080fd5b505af1158015610921573d6000803e3d6000fd5b505050506040513d601f19601f8201168201806040525061094591908101906117ee565b506002818161095057fe5b04600860008473ffffffffffffffffffffffffffffffffffffffff1673ffffffffffffffffffffffffffffffffffffffff1681526020019081526020016000205401600860008473ffffffffffffffffffffffffffffffffffffffff1673ffffffffffffffffffffffffffffffffffffffff168152602001908152602001600020819055505b505080806001019150506107f6565b50565b80600260009054906101000a900473ffffffffffffffffffffffffffffffffffffffff1673ffffffffffffffffffffffffffffffffffffffff166370a08231336040518263ffffffff1660e01b8152600401610a449190611c66565b60206040518083038186803b158015610a5c57600080fd5b505afa158015610a70573d6000803e3d6000fd5b505050506040513d601f19601f82011682018060405250610a9491908101906118d7565b11610a9e57600080fd5b600260009054906101000a900473ffffffffffffffffffffffffffffffffffffffff1673ffffffffffffffffffffffffffffffffffffffff166323b872dd3330846040518463ffffffff1660e01b8152600401610afd93929190611c81565b602060405180830381600087803b158015610b1757600080fd5b505af1158015610b2b573d6000803e3d6000fd5b505050506040513d601f19601f82011682018060405250610b4f91908101906117ee565b50600960003373ffffffffffffffffffffffffffffffffffffffff1673ffffffffffffffffffffffffffffffffffffffff1681526020019081526020016000206000018290806001815401808255809150509060018203906000526020600020016000909192909190915055505050565b60086020528060005260406000206000915090505481565b60076020528060005260406000206000915054906101000a900460ff1681565b60008111610c3b576040517f08c379a0000000000000000000000000000000000000000000000000000000008152600401610c3290611e4a565b60405180910390fd5b600160009054906101000a900473ffffffffffffffffffffffffffffffffffffffff1673ffffffffffffffffffffffffffffffffffffffff166323b872dd3330846040518463ffffffff1660e01b8152600401610c9a93929190611c81565b602060405180830381600087803b158015610cb457600080fd5b505af1158015610cc8573d6000803e3d6000fd5b505050506040513d601f19601f82011682018060405250610cec91908101906117ee565b5080600560003373ffffffffffffffffffffffffffffffffffffffff1673ffffffffffffffffffffffffffffffffffffffff1681526020019081526020016000205401600560003373ffffffffffffffffffffffffffffffffffffffff1673ffffffffffffffffffffffffffffffffffffffff16815260200190815260200160002081905550600660003373ffffffffffffffffffffffffffffffffffffffff1673ffffffffffffffffffffffffffffffffffffffff16815260200190815260200160002060009054906101000a900460ff16610e2a5760043390806001815401808255809150509060018203906000526020600020016000909192909190916101000a81548173ffffffffffffffffffffffffffffffffffffffff021916908373ffffffffffffffffffffffffffffffffffffffff160217905550505b6001600760003373ffffffffffffffffffffffffffffffffffffffff1673ffffffffffffffffffffffffffffffffffffffff16815260200190815260200160002060006101000a81548160ff0219169083151502179055506001600660003373ffffffffffffffffffffffffffffffffffffffff1673ffffffffffffffffffffffffffffffffffffffff16815260200190815260200160002060006101000a81548160ff02191690831515021790555050565b600360009054906101000a900473ffffffffffffffffffffffffffffffffffffffff1681565b6060600a60008373ffffffffffffffffffffffffffffffffffffffff1673ffffffffffffffffffffffffffffffffffffffff168152602001908152602001600020600001805480602002602001604051908101604052809291908181526020016000905b82821015611023578382906000526020600020018054600181600116156101000203166002900480601f01602080910402602001604051908101604052809291908181526020018280546001816001161561010002031660029004801561100f5780601f10610fe45761010080835404028352916020019161100f565b820191906000526020600020905b815481529060010190602001808311610ff257829003601f168201915b505050505081526020019060010190610f67565b505050509050919050565b6000600560003373ffffffffffffffffffffffffffffffffffffffff1673ffffffffffffffffffffffffffffffffffffffff168152602001908152602001600020549050600081116110b5576040517f08c379a00000000000000000000000000000000000000000000000000000000081526004016110ac90611e0a565b60405180910390fd5b600160009054906101000a900473ffffffffffffffffffffffffffffffffffffffff1673ffffffffffffffffffffffffffffffffffffffff1663a9059cbb33836040518363ffffffff1660e01b8152600401611112929190611ce1565b602060405180830381600087803b15801561112c57600080fd5b505af1158015611140573d6000803e3d6000fd5b505050506040513d601f19601f8201168201806040525061116491908101906117ee565b506000600560003373ffffffffffffffffffffffffffffffffffffffff1673ffffffffffffffffffffffffffffffffffffffff168152602001908152602001600020819055506000600760003373ffffffffffffffffffffffffffffffffffffffff1673ffffffffffffffffffffffffffffffffffffffff16815260200190815260200160002060006101000a81548160ff02191690831515021790555050565b600260009054906101000a900473ffffffffffffffffffffffffffffffffffffffff1681565b600160009054906101000a900473ffffffffffffffffffffffffffffffffffffffff1681565b60066020528060005260406000206000915054906101000a900460ff1681565b6000600560003373ffffffffffffffffffffffffffffffffffffffff1673ffffffffffffffffffffffffffffffffffffffff1681526020019081526020016000205490508181116112f7576040517f08c379a00000000000000000000000000000000000000000000000000000000081526004016112ee90611e2a565b60405180910390fd5b600160009054906101000a900473ffffffffffffffffffffffffffffffffffffffff1673ffffffffffffffffffffffffffffffffffffffff1663a9059cbb33846040518363ffffffff1660e01b8152600401611354929190611ce1565b602060405180830381600087803b15801561136e57600080fd5b505af1158015611382573d6000803e3d6000fd5b505050506040513d601f19601f820116820180604052506113a691908101906117ee565b5081600560003373ffffffffffffffffffffffffffffffffffffffff1673ffffffffffffffffffffffffffffffffffffffff1681526020019081526020016000205403600560003373ffffffffffffffffffffffffffffffffffffffff1673ffffffffffffffffffffffffffffffffffffffff168152602001908152602001600020819055506000600560003373ffffffffffffffffffffffffffffffffffffffff1673ffffffffffffffffffffffffffffffffffffffff1681526020019081526020016000205414156114cd576000600760003373ffffffffffffffffffffffffffffffffffffffff1673ffffffffffffffffffffffffffffffffffffffff16815260200190815260200160002060006101000a81548160ff0219169083151502179055505b5050565b80600260009054906101000a900473ffffffffffffffffffffffffffffffffffffffff1673ffffffffffffffffffffffffffffffffffffffff166370a08231336040518263ffffffff1660e01b815260040161152d9190611c66565b60206040518083038186803b15801561154557600080fd5b505afa158015611559573d6000803e3d6000fd5b505050506040513d601f19601f8201168201806040525061157d91908101906118d7565b1161158757600080fd5b600260009054906101000a900473ffffffffffffffffffffffffffffffffffffffff1673ffffffffffffffffffffffffffffffffffffffff166323b872dd3330846040518463ffffffff1660e01b81526004016115e693929190611c81565b602060405180830381600087803b15801561160057600080fd5b505af1158015611614573d6000803e3d6000fd5b505050506040513d601f19601f8201168201806040525061163891908101906117ee565b5050565b6004818154811061164957fe5b906000526020600020016000915054906101000a900473ffffffffffffffffffffffffffffffffffffffff1681565b828054600181600116156101000203166002900490600052602060002090601f016020900481019282601f106116b957805160ff19168380011785556116e7565b828001600101855582156116e7579182015b828111156116e65782518255916020019190600101906116cb565b5b5090506116f491906116f8565b5090565b61171a91905b808211156117165760008160009055506001016116fe565b5090565b90565b60008135905061172c816120a8565b92915050565b600081519050611741816120bf565b92915050565b600082601f83011261175857600080fd5b813561176b61176682611eb2565b611e85565b9150808252602083016020830185838301111561178757600080fd5b611792838284612055565b50505092915050565b6000813590506117aa816120d6565b92915050565b6000815190506117bf816120d6565b92915050565b6000602082840312156117d757600080fd5b60006117e58482850161171d565b91505092915050565b60006020828403121561180057600080fd5b600061180e84828501611732565b91505092915050565b60008060006060848603121561182c57600080fd5b600084013567ffffffffffffffff81111561184657600080fd5b61185286828701611747565b935050602084013567ffffffffffffffff81111561186f57600080fd5b61187b86828701611747565b925050604084013567ffffffffffffffff81111561189857600080fd5b6118a486828701611747565b9150509250925092565b6000602082840312156118c057600080fd5b60006118ce8482850161179b565b91505092915050565b6000602082840312156118e957600080fd5b60006118f7848285016117b0565b91505092915050565b6000806040838503121561191357600080fd5b60006119218582860161179b565b92505060206119328582860161179b565b9150509250929050565b60006119488383611a95565b905092915050565b600061195c8383611c2d565b60208301905092915050565b61197181611fc5565b82525050565b61198081611f7d565b82525050565b600061199182611efe565b61199b8185611f39565b9350836020820285016119ad85611ede565b8060005b858110156119e957848403895281516119ca858261193c565b94506119d583611f1f565b925060208a019950506001810190506119b1565b50829750879550505050505092915050565b6000611a0682611f09565b611a108185611f4a565b9350611a1b83611eee565b8060005b83811015611a4c578151611a338882611950565b9750611a3e83611f2c565b925050600181019050611a1f565b5085935050505092915050565b611a6281611f8f565b82525050565b611a7181611fd7565b82525050565b611a8081611ffb565b82525050565b611a8f8161201f565b82525050565b6000611aa082611f14565b611aaa8185611f5b565b9350611aba818560208601612064565b611ac381612097565b840191505092915050565b6000611ad982611f14565b611ae38185611f6c565b9350611af3818560208601612064565b611afc81612097565b840191505092915050565b6000611b14601883611f6c565b91507f63616c6c6572206d75737420626520746865206f776e657200000000000000006000830152602082019050919050565b6000611b54601b83611f6c565b91507f7374616b696e672062616c616e63652063616e6e6f74206265203000000000006000830152602082019050919050565b6000611b94602383611f6c565b91507f7374616b696e672062616c616e63652067726561746572207468616e20616d6f60008301527f756e7400000000000000000000000000000000000000000000000000000000006020830152604082019050919050565b6000611bfa601283611f6c565b91507f616d6f756e742063616e6e6f74206265203000000000000000000000000000006000830152602082019050919050565b611c3681611fbb565b82525050565b611c4581611fbb565b82525050565b6000602082019050611c606000830184611977565b92915050565b6000602082019050611c7b6000830184611968565b92915050565b6000606082019050611c966000830186611968565b611ca36020830185611977565b611cb06040830184611c3c565b949350505050565b6000604082019050611ccd6000830185611968565b611cda6020830184611a86565b9392505050565b6000604082019050611cf66000830185611968565b611d036020830184611c3c565b9392505050565b6000604082019050611d1f6000830185611977565b611d2c6020830184611c3c565b9392505050565b60006020820190508181036000830152611d4d8184611986565b905092915050565b60006020820190508181036000830152611d6f81846119fb565b905092915050565b6000602082019050611d8c6000830184611a59565b92915050565b6000602082019050611da76000830184611a68565b92915050565b6000602082019050611dc26000830184611a77565b92915050565b60006020820190508181036000830152611de28184611ace565b905092915050565b60006020820190508181036000830152611e0381611b07565b9050919050565b60006020820190508181036000830152611e2381611b47565b9050919050565b60006020820190508181036000830152611e4381611b87565b9050919050565b60006020820190508181036000830152611e6381611bed565b9050919050565b6000602082019050611e7f6000830184611c3c565b92915050565b6000604051905081810181811067ffffffffffffffff82111715611ea857600080fd5b8060405250919050565b600067ffffffffffffffff821115611ec957600080fd5b601f19601f8301169050602081019050919050565b6000819050602082019050919050565b6000819050602082019050919050565b600081519050919050565b600081519050919050565b600081519050919050565b6000602082019050919050565b6000602082019050919050565b600082825260208201905092915050565b600082825260208201905092915050565b600082825260208201905092915050565b600082825260208201905092915050565b6000611f8882611f9b565b9050919050565b60008115159050919050565b600073ffffffffffffffffffffffffffffffffffffffff82169050919050565b6000819050919050565b6000611fd082612031565b9050919050565b6000611fe282611fe9565b9050919050565b6000611ff482611f9b565b9050919050565b60006120068261200d565b9050919050565b600061201882611f9b565b9050919050565b600061202a82611fbb565b9050919050565b600061203c82612043565b9050919050565b600061204e82611f9b565b9050919050565b82818337600083830152505050565b60005b83811015612082578082015181840152602081019050612067565b83811115612091576000848401525b50505050565b6000601f19601f8301169050919050565b6120b181611f7d565b81146120bc57600080fd5b50565b6120c881611f8f565b81146120d357600080fd5b50565b6120df81611fbb565b81146120ea57600080fd5b5056fea365627a7a723158204ee6ea5c3fb3b7819e70094b19ab0719325910ca82d0a8a8fcf7ee3f2f7a808e6c6578706572696d656e74616cf564736f6c63430005100040",
  "source": "pragma solidity >=0.5.0;\npragma experimental ABIEncoderV2;\n\nimport \"./UsiToken.sol\";\nimport \"./DaiToken.sol\";\n\ncontract TokenFarm {\n    \n    string public name = \"USI Token farm\";\n    DaiToken public daiToken; \n    UsiToken public usiToken;\n    address public owner;\n\n    struct itemsBought {\n        uint256[] x;\n    }\n\n    struct givenAnswers {\n        string[] x;\n    }\n\n    address[] public stakers; \n    mapping(address => uint256) public stakingBalance; \n    mapping(address => bool) public hasStaked; \n    mapping(address => bool) public isStaking; \n    mapping(address => uint256) public totalObtained;\n    mapping(address => itemsBought) itemsBuyed;\n    mapping(address => givenAnswers) surveyAnswers;\n\n    constructor(UsiToken _usiToken, DaiToken _daiToken) public {\n        daiToken = _daiToken;\n        usiToken = _usiToken;\n        //dichiaro owner, colui che deploy lo smart contract, solo lui puo dare i rewards.\n        owner = msg.sender;\n    }\n\n    function getItems(address _add) public view returns (uint256[] memory) {\n        return itemsBuyed[_add].x;\n    }\n\n    function getAnswers(address _add) public view returns (string[] memory) {\n        return surveyAnswers[_add].x;\n    }\n\n    \n    function stakeTokens(uint256 _amount) public {\n        require(_amount > 0, \"amount cannot be 0\");\n        daiToken.transferFrom(msg.sender, address(this), _amount);\n        stakingBalance[msg.sender] = stakingBalance[msg.sender] + _amount;\n        if (!hasStaked[msg.sender]) {\n            stakers.push(msg.sender);\n        }\n        isStaking[msg.sender] = true;\n        hasStaked[msg.sender] = true;\n    }\n\n    function unstakeTokens() public {\n        uint256 balance = stakingBalance[msg.sender];\n        require(balance > 0, \"staking balance cannot be 0\");\n        daiToken.transfer(msg.sender, balance);\n        stakingBalance[msg.sender] = 0;\n\n        isStaking[msg.sender] = false;\n    }\n\n    function unstakeNTokens(uint256 _amount) public {\n        uint256 balance = stakingBalance[msg.sender];\n        require(balance > _amount, \"staking balance greater than amount\");\n\n        daiToken.transfer(msg.sender, _amount);\n\n        stakingBalance[msg.sender] = stakingBalance[msg.sender] - _amount;\n        if (stakingBalance[msg.sender] == 0) {\n            isStaking[msg.sender] = false;\n        }\n    }\n\n    function issueTokens() public {\n        require(msg.sender == owner, \"caller must be the owner\");\n\n        for (uint256 i = 0; i < stakers.length; i++) {\n            address recipient = stakers[i];\n            uint256 balance = stakingBalance[recipient];\n            if (balance > 0) {\n                usiToken.transfer(recipient, (balance / 2));\n                totalObtained[recipient] =\n                    totalObtained[recipient] +\n                    (balance / 2);\n            }\n        }\n    }\n\n    function buyItem(uint256 _price) public {\n        require(usiToken.balanceOf(msg.sender) > _price);\n        usiToken.transferFrom(msg.sender, address(this), _price);\n    }\n\n    function buyNewItem(uint256 _id, uint256 _price) public {\n        require(usiToken.balanceOf(msg.sender) > _price);\n        usiToken.transferFrom(msg.sender, address(this), _price);\n        itemsBuyed[msg.sender].x.push(_id);\n    }\n\n    function completeSurvey(\n        string memory _ans1,\n        string memory _ans2,\n        string memory _ans3\n    ) public {\n        require(surveyAnswers[msg.sender].x.length == 0);\n        surveyAnswers[msg.sender].x.push(_ans1);\n        surveyAnswers[msg.sender].x.push(_ans2);\n        surveyAnswers[msg.sender].x.push(_ans3);\n        \n        usiToken.transfer(msg.sender, 100000000000000000000);\n    }\n}\n",
  "sourcePath": "/Users/simi/Desktop/cartella senza nome/Loyalty-DApp/src/contracts/TokenFarm.sol",
  "compiler": {
    "name": "solc",
    "version": "0.5.16+commit.9c3226ce.Emscripten.clang"
  },
  "schemaVersion": "3.2.3",
  "updatedAt": "2021-12-20T17:04:18.710Z",
  "networkType": "ethereum",
  "devdoc": {
    "methods": {}
  },
  "userdoc": {
    "methods": {}
  }
}