{
  "contractName": "TokenFarm",
  "abi": [
    {
      "inputs": [
        {
          "internalType": "contract UsiToken",
          "name": "_usiToken",
          "type": "address"
        },
        {
          "internalType": "contract DaiToken",
          "name": "_daiToken",
          "type": "address"
        }
      ],
      "payable": false,
      "stateMutability": "nonpayable",
      "type": "constructor"
    },
    {
      "constant": true,
      "inputs": [],
      "name": "daiToken",
      "outputs": [
        {
          "internalType": "contract DaiToken",
          "name": "",
          "type": "address"
        }
      ],
      "payable": false,
      "stateMutability": "view",
      "type": "function"
    },
    {
      "constant": true,
      "inputs": [
        {
          "internalType": "address",
          "name": "",
          "type": "address"
        }
      ],
      "name": "hasStaked",
      "outputs": [
        {
          "internalType": "bool",
          "name": "",
          "type": "bool"
        }
      ],
      "payable": false,
      "stateMutability": "view",
      "type": "function"
    },
    {
      "constant": true,
      "inputs": [
        {
          "internalType": "address",
          "name": "",
          "type": "address"
        }
      ],
      "name": "isStaking",
      "outputs": [
        {
          "internalType": "bool",
          "name": "",
          "type": "bool"
        }
      ],
      "payable": false,
      "stateMutability": "view",
      "type": "function"
    },
    {
      "constant": true,
      "inputs": [],
      "name": "name",
      "outputs": [
        {
          "internalType": "string",
          "name": "",
          "type": "string"
        }
      ],
      "payable": false,
      "stateMutability": "view",
      "type": "function"
    },
    {
      "constant": true,
      "inputs": [],
      "name": "owner",
      "outputs": [
        {
          "internalType": "address",
          "name": "",
          "type": "address"
        }
      ],
      "payable": false,
      "stateMutability": "view",
      "type": "function"
    },
    {
      "constant": true,
      "inputs": [
        {
          "internalType": "uint256",
          "name": "",
          "type": "uint256"
        }
      ],
      "name": "stakers",
      "outputs": [
        {
          "internalType": "address",
          "name": "",
          "type": "address"
        }
      ],
      "payable": false,
      "stateMutability": "view",
      "type": "function"
    },
    {
      "constant": true,
      "inputs": [
        {
          "internalType": "address",
          "name": "",
          "type": "address"
        }
      ],
      "name": "stakingBalance",
      "outputs": [
        {
          "internalType": "uint256",
          "name": "",
          "type": "uint256"
        }
      ],
      "payable": false,
      "stateMutability": "view",
      "type": "function"
    },
    {
      "constant": true,
      "inputs": [
        {
          "internalType": "address",
          "name": "",
          "type": "address"
        }
      ],
      "name": "totalObtained",
      "outputs": [
        {
          "internalType": "uint256",
          "name": "",
          "type": "uint256"
        }
      ],
      "payable": false,
      "stateMutability": "view",
      "type": "function"
    },
    {
      "constant": true,
      "inputs": [],
      "name": "usiToken",
      "outputs": [
        {
          "internalType": "contract UsiToken",
          "name": "",
          "type": "address"
        }
      ],
      "payable": false,
      "stateMutability": "view",
      "type": "function"
    },
    {
      "constant": true,
      "inputs": [
        {
          "internalType": "address",
          "name": "_add",
          "type": "address"
        }
      ],
      "name": "getItems",
      "outputs": [
        {
          "internalType": "uint256[]",
          "name": "",
          "type": "uint256[]"
        }
      ],
      "payable": false,
      "stateMutability": "view",
      "type": "function"
    },
    {
      "constant": true,
      "inputs": [
        {
          "internalType": "address",
          "name": "_add",
          "type": "address"
        }
      ],
      "name": "getAnswers",
      "outputs": [
        {
          "internalType": "string[]",
          "name": "",
          "type": "string[]"
        }
      ],
      "payable": false,
      "stateMutability": "view",
      "type": "function"
    },
    {
      "constant": false,
      "inputs": [
        {
          "internalType": "uint256",
          "name": "_amount",
          "type": "uint256"
        }
      ],
      "name": "stakeTokens",
      "outputs": [],
      "payable": false,
      "stateMutability": "nonpayable",
      "type": "function"
    },
    {
      "constant": false,
      "inputs": [],
      "name": "unstakeTokens",
      "outputs": [],
      "payable": false,
      "stateMutability": "nonpayable",
      "type": "function"
    },
    {
      "constant": false,
      "inputs": [
        {
          "internalType": "uint256",
          "name": "_amount",
          "type": "uint256"
        }
      ],
      "name": "unstakeNTokens",
      "outputs": [],
      "payable": false,
      "stateMutability": "nonpayable",
      "type": "function"
    },
    {
      "constant": false,
      "inputs": [],
      "name": "issueTokens",
      "outputs": [],
      "payable": false,
      "stateMutability": "nonpayable",
      "type": "function"
    },
    {
      "constant": false,
      "inputs": [
        {
          "internalType": "uint256",
          "name": "_price",
          "type": "uint256"
        }
      ],
      "name": "buyItem",
      "outputs": [],
      "payable": false,
      "stateMutability": "nonpayable",
      "type": "function"
    },
    {
      "constant": false,
      "inputs": [
        {
          "internalType": "uint256",
          "name": "_id",
          "type": "uint256"
        },
        {
          "internalType": "uint256",
          "name": "_price",
          "type": "uint256"
        }
      ],
      "name": "buyNewItem",
      "outputs": [],
      "payable": false,
      "stateMutability": "nonpayable",
      "type": "function"
    },
    {
      "constant": false,
      "inputs": [
        {
          "internalType": "string",
          "name": "_ans1",
          "type": "string"
        },
        {
          "internalType": "string",
          "name": "_ans2",
          "type": "string"
        },
        {
          "internalType": "string",
          "name": "_ans3",
          "type": "string"
        }
      ],
      "name": "completeSurvey",
      "outputs": [],
      "payable": false,
      "stateMutability": "nonpayable",
      "type": "function"
    }
  ],
  "bytecode": "0x60806040526040518060400160405280600e81526020017f55534920546f6b656e206661726d000000000000000000000000000000000000815250600090805190602001906200005192919062000150565b503480156200005f57600080fd5b50604051620024463803806200244683398181016040526200008591908101906200022d565b80600160006101000a81548173ffffffffffffffffffffffffffffffffffffffff021916908373ffffffffffffffffffffffffffffffffffffffff16021790555081600260006101000a81548173ffffffffffffffffffffffffffffffffffffffff021916908373ffffffffffffffffffffffffffffffffffffffff16021790555033600360006101000a81548173ffffffffffffffffffffffffffffffffffffffff021916908373ffffffffffffffffffffffffffffffffffffffff1602179055505050620002fe565b828054600181600116156101000203166002900490600052602060002090601f016020900481019282601f106200019357805160ff1916838001178555620001c4565b82800160010185558215620001c4579182015b82811115620001c3578251825591602001919060010190620001a6565b5b509050620001d39190620001d7565b5090565b620001fc91905b80821115620001f8576000816000905550600101620001de565b5090565b90565b6000815190506200021081620002ca565b92915050565b6000815190506200022781620002e4565b92915050565b600080604083850312156200024157600080fd5b6000620002518582860162000216565b92505060206200026485828601620001ff565b9150509250929050565b60006200027b82620002aa565b9050919050565b60006200028f826200026e565b9050919050565b6000620002a3826200026e565b9050919050565b600073ffffffffffffffffffffffffffffffffffffffff82169050919050565b620002d58162000282565b8114620002e157600080fd5b50565b620002ef8162000296565b8114620002fb57600080fd5b50565b612138806200030e6000396000f3fe608060405234801561001057600080fd5b50600436106101165760003560e01c80638da5cb5b116100a2578063be22f54611610071578063be22f546146102cd578063c93c8f34146102eb578063cdb5b8de1461031b578063e7fb74c714610337578063fd5e6dd11461035357610116565b80638da5cb5b146102575780639831309614610275578063a5ce413b146102a5578063b160a016146102af57610116565b806360ab5852116100e957806360ab5852146101b557806360e9280b146101bf57806365c199c9146101db5780636f49712b1461020b5780637547c7a31461023b57610116565b806306fdde031461011b57806332d50e021461013957806345bc78ab146101555780634d73665514610185575b600080fd5b610123610383565b6040516101309190611dd0565b60405180910390f35b610153600480360361014e9190810190611811565b610421565b005b61016f600480360361016a91908101906117bf565b6106a8565b60405161017c9190611e72565b60405180910390f35b61019f600480360361019a91908101906117bf565b6106c0565b6040516101ac9190611d5d565b60405180910390f35b6101bd61075a565b005b6101d960048036036101d491908101906118fa565b6109e2565b005b6101f560048036036101f091908101906117bf565b610bba565b6040516102029190611e72565b60405180910390f35b610225600480360361022091908101906117bf565b610bd2565b6040516102329190611d7f565b60405180910390f35b610255600480360361025091908101906118a8565b610bf2565b005b61025f610ed7565b60405161026c9190611c45565b60405180910390f35b61028f600480360361028a91908101906117bf565b610efd565b60405161029c9190611d3b565b60405180910390f35b6102ad611028565b005b6102b76111ff565b6040516102c49190611db5565b60405180910390f35b6102d5611225565b6040516102e29190611d9a565b60405180910390f35b610305600480360361030091908101906117bf565b61124b565b6040516103129190611d7f565b60405180910390f35b610335600480360361033091908101906118a8565b61126b565b005b610351600480360361034c91908101906118a8565b6114cb565b005b61036d600480360361036891908101906118a8565b611636565b60405161037a9190611c45565b60405180910390f35b60008054600181600116156101000203166002900480601f0160208091040260200160405190810160405280929190818152602001828054600181600116156101000203166002900480156104195780601f106103ee57610100808354040283529160200191610419565b820191906000526020600020905b8154815290600101906020018083116103fc57829003601f168201915b505050505081565b6000600a60003373ffffffffffffffffffffffffffffffffffffffff1673ffffffffffffffffffffffffffffffffffffffff168152602001908152602001600020600001805490501461047357600080fd5b600a60003373ffffffffffffffffffffffffffffffffffffffff1673ffffffffffffffffffffffffffffffffffffffff1681526020019081526020016000206000018390806001815401808255809150509060018203906000526020600020016000909192909190915090805190602001906104f0929190611672565b5050600a60003373ffffffffffffffffffffffffffffffffffffffff1673ffffffffffffffffffffffffffffffffffffffff16815260200190815260200160002060000182908060018154018082558091505090600182039060005260206000200160009091929091909150908051906020019061056f929190611672565b5050600a60003373ffffffffffffffffffffffffffffffffffffffff1673ffffffffffffffffffffffffffffffffffffffff1681526020019081526020016000206000018190806001815401808255809150509060018203906000526020600020016000909192909190915090805190602001906105ee929190611672565b5050600260009054906101000a900473ffffffffffffffffffffffffffffffffffffffff1673ffffffffffffffffffffffffffffffffffffffff166323b872dd303360646040518463ffffffff1660e01b815260040161065093929190611cdb565b602060405180830381600087803b15801561066a57600080fd5b505af115801561067e573d6000803e3d6000fd5b505050506040513d601f19601f820116820180604052506106a291908101906117e8565b50505050565b60056020528060005260406000206000915090505481565b6060600960008373ffffffffffffffffffffffffffffffffffffffff1673ffffffffffffffffffffffffffffffffffffffff16815260200190815260200160002060000180548060200260200160405190810160405280929190818152602001828054801561074e57602002820191906000526020600020905b81548152602001906001019080831161073a575b50505050509050919050565b600360009054906101000a900473ffffffffffffffffffffffffffffffffffffffff1673ffffffffffffffffffffffffffffffffffffffff163373ffffffffffffffffffffffffffffffffffffffff16146107ea576040517f08c379a00000000000000000000000000000000000000000000000000000000081526004016107e190611df2565b60405180910390fd5b60008090505b6004805490508110156109df5760006004828154811061080c57fe5b9060005260206000200160009054906101000a900473ffffffffffffffffffffffffffffffffffffffff1690506000600560008373ffffffffffffffffffffffffffffffffffffffff1673ffffffffffffffffffffffffffffffffffffffff16815260200190815260200160002054905060008111156109d057600260009054906101000a900473ffffffffffffffffffffffffffffffffffffffff1673ffffffffffffffffffffffffffffffffffffffff1663a9059cbb83600284816108cf57fe5b046040518363ffffffff1660e01b81526004016108ed929190611d12565b602060405180830381600087803b15801561090757600080fd5b505af115801561091b573d6000803e3d6000fd5b505050506040513d601f19601f8201168201806040525061093f91908101906117e8565b506002818161094a57fe5b04600860008473ffffffffffffffffffffffffffffffffffffffff1673ffffffffffffffffffffffffffffffffffffffff1681526020019081526020016000205401600860008473ffffffffffffffffffffffffffffffffffffffff1673ffffffffffffffffffffffffffffffffffffffff168152602001908152602001600020819055505b505080806001019150506107f0565b50565b80600260009054906101000a900473ffffffffffffffffffffffffffffffffffffffff1673ffffffffffffffffffffffffffffffffffffffff166370a08231336040518263ffffffff1660e01b8152600401610a3e9190611c60565b60206040518083038186803b158015610a5657600080fd5b505afa158015610a6a573d6000803e3d6000fd5b505050506040513d601f19601f82011682018060405250610a8e91908101906118d1565b11610a9857600080fd5b600260009054906101000a900473ffffffffffffffffffffffffffffffffffffffff1673ffffffffffffffffffffffffffffffffffffffff166323b872dd3330846040518463ffffffff1660e01b8152600401610af793929190611c7b565b602060405180830381600087803b158015610b1157600080fd5b505af1158015610b25573d6000803e3d6000fd5b505050506040513d601f19601f82011682018060405250610b4991908101906117e8565b50600960003373ffffffffffffffffffffffffffffffffffffffff1673ffffffffffffffffffffffffffffffffffffffff1681526020019081526020016000206000018290806001815401808255809150509060018203906000526020600020016000909192909190915055505050565b60086020528060005260406000206000915090505481565b60076020528060005260406000206000915054906101000a900460ff1681565b60008111610c35576040517f08c379a0000000000000000000000000000000000000000000000000000000008152600401610c2c90611e52565b60405180910390fd5b600160009054906101000a900473ffffffffffffffffffffffffffffffffffffffff1673ffffffffffffffffffffffffffffffffffffffff166323b872dd3330846040518463ffffffff1660e01b8152600401610c9493929190611c7b565b602060405180830381600087803b158015610cae57600080fd5b505af1158015610cc2573d6000803e3d6000fd5b505050506040513d601f19601f82011682018060405250610ce691908101906117e8565b5080600560003373ffffffffffffffffffffffffffffffffffffffff1673ffffffffffffffffffffffffffffffffffffffff1681526020019081526020016000205401600560003373ffffffffffffffffffffffffffffffffffffffff1673ffffffffffffffffffffffffffffffffffffffff16815260200190815260200160002081905550600660003373ffffffffffffffffffffffffffffffffffffffff1673ffffffffffffffffffffffffffffffffffffffff16815260200190815260200160002060009054906101000a900460ff16610e245760043390806001815401808255809150509060018203906000526020600020016000909192909190916101000a81548173ffffffffffffffffffffffffffffffffffffffff021916908373ffffffffffffffffffffffffffffffffffffffff160217905550505b6001600760003373ffffffffffffffffffffffffffffffffffffffff1673ffffffffffffffffffffffffffffffffffffffff16815260200190815260200160002060006101000a81548160ff0219169083151502179055506001600660003373ffffffffffffffffffffffffffffffffffffffff1673ffffffffffffffffffffffffffffffffffffffff16815260200190815260200160002060006101000a81548160ff02191690831515021790555050565b600360009054906101000a900473ffffffffffffffffffffffffffffffffffffffff1681565b6060600a60008373ffffffffffffffffffffffffffffffffffffffff1673ffffffffffffffffffffffffffffffffffffffff168152602001908152602001600020600001805480602002602001604051908101604052809291908181526020016000905b8282101561101d578382906000526020600020018054600181600116156101000203166002900480601f0160208091040260200160405190810160405280929190818152602001828054600181600116156101000203166002900480156110095780601f10610fde57610100808354040283529160200191611009565b820191906000526020600020905b815481529060010190602001808311610fec57829003601f168201915b505050505081526020019060010190610f61565b505050509050919050565b6000600560003373ffffffffffffffffffffffffffffffffffffffff1673ffffffffffffffffffffffffffffffffffffffff168152602001908152602001600020549050600081116110af576040517f08c379a00000000000000000000000000000000000000000000000000000000081526004016110a690611e12565b60405180910390fd5b600160009054906101000a900473ffffffffffffffffffffffffffffffffffffffff1673ffffffffffffffffffffffffffffffffffffffff1663a9059cbb33836040518363ffffffff1660e01b815260040161110c929190611cb2565b602060405180830381600087803b15801561112657600080fd5b505af115801561113a573d6000803e3d6000fd5b505050506040513d601f19601f8201168201806040525061115e91908101906117e8565b506000600560003373ffffffffffffffffffffffffffffffffffffffff1673ffffffffffffffffffffffffffffffffffffffff168152602001908152602001600020819055506000600760003373ffffffffffffffffffffffffffffffffffffffff1673ffffffffffffffffffffffffffffffffffffffff16815260200190815260200160002060006101000a81548160ff02191690831515021790555050565b600260009054906101000a900473ffffffffffffffffffffffffffffffffffffffff1681565b600160009054906101000a900473ffffffffffffffffffffffffffffffffffffffff1681565b60066020528060005260406000206000915054906101000a900460ff1681565b6000600560003373ffffffffffffffffffffffffffffffffffffffff1673ffffffffffffffffffffffffffffffffffffffff1681526020019081526020016000205490508181116112f1576040517f08c379a00000000000000000000000000000000000000000000000000000000081526004016112e890611e32565b60405180910390fd5b600160009054906101000a900473ffffffffffffffffffffffffffffffffffffffff1673ffffffffffffffffffffffffffffffffffffffff1663a9059cbb33846040518363ffffffff1660e01b815260040161134e929190611cb2565b602060405180830381600087803b15801561136857600080fd5b505af115801561137c573d6000803e3d6000fd5b505050506040513d601f19601f820116820180604052506113a091908101906117e8565b5081600560003373ffffffffffffffffffffffffffffffffffffffff1673ffffffffffffffffffffffffffffffffffffffff1681526020019081526020016000205403600560003373ffffffffffffffffffffffffffffffffffffffff1673ffffffffffffffffffffffffffffffffffffffff168152602001908152602001600020819055506000600560003373ffffffffffffffffffffffffffffffffffffffff1673ffffffffffffffffffffffffffffffffffffffff1681526020019081526020016000205414156114c7576000600760003373ffffffffffffffffffffffffffffffffffffffff1673ffffffffffffffffffffffffffffffffffffffff16815260200190815260200160002060006101000a81548160ff0219169083151502179055505b5050565b80600260009054906101000a900473ffffffffffffffffffffffffffffffffffffffff1673ffffffffffffffffffffffffffffffffffffffff166370a08231336040518263ffffffff1660e01b81526004016115279190611c60565b60206040518083038186803b15801561153f57600080fd5b505afa158015611553573d6000803e3d6000fd5b505050506040513d601f19601f8201168201806040525061157791908101906118d1565b1161158157600080fd5b600260009054906101000a900473ffffffffffffffffffffffffffffffffffffffff1673ffffffffffffffffffffffffffffffffffffffff166323b872dd3330846040518463ffffffff1660e01b81526004016115e093929190611c7b565b602060405180830381600087803b1580156115fa57600080fd5b505af115801561160e573d6000803e3d6000fd5b505050506040513d601f19601f8201168201806040525061163291908101906117e8565b5050565b6004818154811061164357fe5b906000526020600020016000915054906101000a900473ffffffffffffffffffffffffffffffffffffffff1681565b828054600181600116156101000203166002900490600052602060002090601f016020900481019282601f106116b357805160ff19168380011785556116e1565b828001600101855582156116e1579182015b828111156116e05782518255916020019190600101906116c5565b5b5090506116ee91906116f2565b5090565b61171491905b808211156117105760008160009055506001016116f8565b5090565b90565b600081359050611726816120b0565b92915050565b60008151905061173b816120c7565b92915050565b600082601f83011261175257600080fd5b813561176561176082611eba565b611e8d565b9150808252602083016020830185838301111561178157600080fd5b61178c83828461205d565b50505092915050565b6000813590506117a4816120de565b92915050565b6000815190506117b9816120de565b92915050565b6000602082840312156117d157600080fd5b60006117df84828501611717565b91505092915050565b6000602082840312156117fa57600080fd5b60006118088482850161172c565b91505092915050565b60008060006060848603121561182657600080fd5b600084013567ffffffffffffffff81111561184057600080fd5b61184c86828701611741565b935050602084013567ffffffffffffffff81111561186957600080fd5b61187586828701611741565b925050604084013567ffffffffffffffff81111561189257600080fd5b61189e86828701611741565b9150509250925092565b6000602082840312156118ba57600080fd5b60006118c884828501611795565b91505092915050565b6000602082840312156118e357600080fd5b60006118f1848285016117aa565b91505092915050565b6000806040838503121561190d57600080fd5b600061191b85828601611795565b925050602061192c85828601611795565b9150509250929050565b60006119428383611a8f565b905092915050565b60006119568383611c27565b60208301905092915050565b61196b81611fcd565b82525050565b61197a81611f85565b82525050565b600061198b82611f06565b6119958185611f41565b9350836020820285016119a785611ee6565b8060005b858110156119e357848403895281516119c48582611936565b94506119cf83611f27565b925060208a019950506001810190506119ab565b50829750879550505050505092915050565b6000611a0082611f11565b611a0a8185611f52565b9350611a1583611ef6565b8060005b83811015611a46578151611a2d888261194a565b9750611a3883611f34565b925050600181019050611a19565b5085935050505092915050565b611a5c81611f97565b82525050565b611a6b81611fdf565b82525050565b611a7a81612003565b82525050565b611a8981612027565b82525050565b6000611a9a82611f1c565b611aa48185611f63565b9350611ab481856020860161206c565b611abd8161209f565b840191505092915050565b6000611ad382611f1c565b611add8185611f74565b9350611aed81856020860161206c565b611af68161209f565b840191505092915050565b6000611b0e601883611f74565b91507f63616c6c6572206d75737420626520746865206f776e657200000000000000006000830152602082019050919050565b6000611b4e601b83611f74565b91507f7374616b696e672062616c616e63652063616e6e6f74206265203000000000006000830152602082019050919050565b6000611b8e602383611f74565b91507f7374616b696e672062616c616e63652067726561746572207468616e20616d6f60008301527f756e7400000000000000000000000000000000000000000000000000000000006020830152604082019050919050565b6000611bf4601283611f74565b91507f616d6f756e742063616e6e6f74206265203000000000000000000000000000006000830152602082019050919050565b611c3081611fc3565b82525050565b611c3f81611fc3565b82525050565b6000602082019050611c5a6000830184611971565b92915050565b6000602082019050611c756000830184611962565b92915050565b6000606082019050611c906000830186611962565b611c9d6020830185611971565b611caa6040830184611c36565b949350505050565b6000604082019050611cc76000830185611962565b611cd46020830184611c36565b9392505050565b6000606082019050611cf06000830186611971565b611cfd6020830185611962565b611d0a6040830184611a80565b949350505050565b6000604082019050611d276000830185611971565b611d346020830184611c36565b9392505050565b60006020820190508181036000830152611d558184611980565b905092915050565b60006020820190508181036000830152611d7781846119f5565b905092915050565b6000602082019050611d946000830184611a53565b92915050565b6000602082019050611daf6000830184611a62565b92915050565b6000602082019050611dca6000830184611a71565b92915050565b60006020820190508181036000830152611dea8184611ac8565b905092915050565b60006020820190508181036000830152611e0b81611b01565b9050919050565b60006020820190508181036000830152611e2b81611b41565b9050919050565b60006020820190508181036000830152611e4b81611b81565b9050919050565b60006020820190508181036000830152611e6b81611be7565b9050919050565b6000602082019050611e876000830184611c36565b92915050565b6000604051905081810181811067ffffffffffffffff82111715611eb057600080fd5b8060405250919050565b600067ffffffffffffffff821115611ed157600080fd5b601f19601f8301169050602081019050919050565b6000819050602082019050919050565b6000819050602082019050919050565b600081519050919050565b600081519050919050565b600081519050919050565b6000602082019050919050565b6000602082019050919050565b600082825260208201905092915050565b600082825260208201905092915050565b600082825260208201905092915050565b600082825260208201905092915050565b6000611f9082611fa3565b9050919050565b60008115159050919050565b600073ffffffffffffffffffffffffffffffffffffffff82169050919050565b6000819050919050565b6000611fd882612039565b9050919050565b6000611fea82611ff1565b9050919050565b6000611ffc82611fa3565b9050919050565b600061200e82612015565b9050919050565b600061202082611fa3565b9050919050565b600061203282611fc3565b9050919050565b60006120448261204b565b9050919050565b600061205682611fa3565b9050919050565b82818337600083830152505050565b60005b8381101561208a57808201518184015260208101905061206f565b83811115612099576000848401525b50505050565b6000601f19601f8301169050919050565b6120b981611f85565b81146120c457600080fd5b50565b6120d081611f97565b81146120db57600080fd5b50565b6120e781611fc3565b81146120f257600080fd5b5056fea365627a7a72315820b70f5ad506876ea7e85f13c67e07ed2fe215e270d6e757d8ab6d438aee4fc9806c6578706572696d656e74616cf564736f6c63430005100040",
  "source": "pragma solidity >=0.5.0;\npragma experimental ABIEncoderV2;\n\n//importare i token che ci servono qua\nimport \"./UsiToken.sol\";\nimport \"./DaiToken.sol\";\n\ncontract TokenFarm {\n    //all code of the contract goes here\n\n    //quando creiamo una variabile state come qua, che  nello smart contract, il suo valore sar salvato nella blockchain,\n    //essendo pubblica potremo accedervi da fuori\n    string public name = \"USI Token farm\";\n\n    DaiToken public daiToken; //due variabili che assegnamo gli indirizzi tramite costruttore, servono per tutto lo smart contract\n    UsiToken public usiToken;\n    address public owner;\n\n    struct itemsBought {\n        uint256[] x;\n    }\n\n    struct givenAnswers {\n        string[] x;\n    }\n\n    address[] public stakers; //keep track of all the address that have ever staked\n    mapping(address => uint256) public stakingBalance; //quanto balance ha in staking ognuno\n    mapping(address => bool) public hasStaked; //\n    mapping(address => bool) public isStaking; //keep\n    mapping(address => uint256) public totalObtained;\n    mapping(address => itemsBought) itemsBuyed;\n    mapping(address => givenAnswers) surveyAnswers;\n\n    //mapping(address => items) itemsBuyed;\n\n    //this function is going to be executed only once when it depoloy on the network\n    //ci servono gli address dei due token usi e dai li diamo in parametro\n    constructor(UsiToken _usiToken, DaiToken _daiToken) public {\n        daiToken = _daiToken;\n        usiToken = _usiToken;\n        //dichiaro owner, colui che deploy lo smart contract, solo lui puo dare i rewards.\n        owner = msg.sender;\n    }\n\n    function getItems(address _add) public view returns (uint256[] memory) {\n        return itemsBuyed[_add].x;\n    }\n\n    function getAnswers(address _add) public view returns (string[] memory) {\n        return surveyAnswers[_add].x;\n    }\n\n    // staking function, qua l investitore mette i dai nell app che gli daranno rewards in usitoken tipo un deposito di denaro\n    function stakeTokens(uint256 _amount) public {\n        //se falso require stoppa tutto e da exception, altrimenti va avanti\n        require(_amount > 0, \"amount cannot be 0\");\n\n        //transfert dai from the user to this contract for staking\n        daiToken.transferFrom(msg.sender, address(this), _amount);\n\n        stakingBalance[msg.sender] = stakingBalance[msg.sender] + _amount;\n\n        //se nn ha mai fatto staking aggiungilo all array per nn avere errori di puntatore inesistente\n        if (!hasStaked[msg.sender]) {\n            stakers.push(msg.sender);\n        }\n        isStaking[msg.sender] = true;\n        hasStaked[msg.sender] = true;\n    }\n\n    //unstaking token, toglierlo dallo staking un prelevo di denaro tipo\n\n    function unstakeTokens() public {\n        uint256 balance = stakingBalance[msg.sender];\n        require(balance > 0, \"staking balance cannot be 0\");\n\n        //transfer token from the app to the user\n        daiToken.transfer(msg.sender, balance);\n\n        stakingBalance[msg.sender] = 0;\n\n        isStaking[msg.sender] = false;\n    }\n\n    function unstakeNTokens(uint256 _amount) public {\n        uint256 balance = stakingBalance[msg.sender];\n        require(balance > _amount, \"staking balance greater than amount\");\n\n        //transfer token from the app to the user\n        daiToken.transfer(msg.sender, _amount);\n\n        stakingBalance[msg.sender] = stakingBalance[msg.sender] - _amount;\n        if (stakingBalance[msg.sender] == 0) {\n            isStaking[msg.sender] = false;\n        }\n    }\n\n    //issuing token guadagnere interesssi.\n    function issueTokens() public {\n        //nn deve poterla eseguire chiunque ma solo il proprietario del contratto quindi metto req\n        //il proprietario deve chiamarla ogni tot, ogni gorno sett blocco o ecc\n        require(msg.sender == owner, \"caller must be the owner\");\n\n        //rewards in base a quanto depositano, se depositano mille gli diamo mille\n        for (uint256 i = 0; i < stakers.length; i++) {\n            address recipient = stakers[i];\n            uint256 balance = stakingBalance[recipient];\n            if (balance > 0) {\n                usiToken.transfer(recipient, (balance / 2));\n                totalObtained[recipient] =\n                    totalObtained[recipient] +\n                    (balance / 2);\n            }\n        }\n    }\n\n    function buyItem(uint256 _price) public {\n        require(usiToken.balanceOf(msg.sender) > _price);\n        usiToken.transferFrom(msg.sender, address(this), _price);\n    }\n\n    function buyNewItem(uint256 _id, uint256 _price) public {\n        require(usiToken.balanceOf(msg.sender) > _price);\n        usiToken.transferFrom(msg.sender, address(this), _price);\n        itemsBuyed[msg.sender].x.push(_id);\n    }\n\n    function completeSurvey(\n        string memory _ans1,\n        string memory _ans2,\n        string memory _ans3\n    ) public {\n        require(surveyAnswers[msg.sender].x.length == 0);\n        surveyAnswers[msg.sender].x.push(_ans1);\n        surveyAnswers[msg.sender].x.push(_ans2);\n        surveyAnswers[msg.sender].x.push(_ans3);\n        usiToken.transferFrom(address(this), msg.sender, 100);\n    }\n}\n",
  "sourcePath": "/Users/galaron/Desktop/Loyalty-DApp/src/contracts/TokenFarm.sol",
  "compiler": {
    "name": "solc",
    "version": "0.5.16+commit.9c3226ce.Emscripten.clang"
  },
  "schemaVersion": "3.4.3",
  "updatedAt": "2021-12-20T15:06:47.080Z",
  "networkType": "ethereum",
  "devdoc": {
    "methods": {}
  },
  "userdoc": {
    "methods": {}
  }
}