{
  "contractName": "TokenFarm",
  "abi": [
    {
      "inputs": [
        {
          "internalType": "contract UsiToken",
          "name": "_usiToken",
          "type": "address"
        },
        {
          "internalType": "contract DaiToken",
          "name": "_daiToken",
          "type": "address"
        }
      ],
      "payable": false,
      "stateMutability": "nonpayable",
      "type": "constructor"
    },
    {
      "constant": true,
      "inputs": [],
      "name": "daiToken",
      "outputs": [
        {
          "internalType": "contract DaiToken",
          "name": "",
          "type": "address"
        }
      ],
      "payable": false,
      "stateMutability": "view",
      "type": "function"
    },
    {
      "constant": true,
      "inputs": [
        {
          "internalType": "address",
          "name": "",
          "type": "address"
        }
      ],
      "name": "hasStaked",
      "outputs": [
        {
          "internalType": "bool",
          "name": "",
          "type": "bool"
        }
      ],
      "payable": false,
      "stateMutability": "view",
      "type": "function"
    },
    {
      "constant": true,
      "inputs": [
        {
          "internalType": "address",
          "name": "",
          "type": "address"
        }
      ],
      "name": "isStaking",
      "outputs": [
        {
          "internalType": "bool",
          "name": "",
          "type": "bool"
        }
      ],
      "payable": false,
      "stateMutability": "view",
      "type": "function"
    },
    {
      "constant": true,
      "inputs": [],
      "name": "name",
      "outputs": [
        {
          "internalType": "string",
          "name": "",
          "type": "string"
        }
      ],
      "payable": false,
      "stateMutability": "view",
      "type": "function"
    },
    {
      "constant": true,
      "inputs": [],
      "name": "owner",
      "outputs": [
        {
          "internalType": "address",
          "name": "",
          "type": "address"
        }
      ],
      "payable": false,
      "stateMutability": "view",
      "type": "function"
    },
    {
      "constant": true,
      "inputs": [
        {
          "internalType": "uint256",
          "name": "",
          "type": "uint256"
        }
      ],
      "name": "stakers",
      "outputs": [
        {
          "internalType": "address",
          "name": "",
          "type": "address"
        }
      ],
      "payable": false,
      "stateMutability": "view",
      "type": "function"
    },
    {
      "constant": true,
      "inputs": [
        {
          "internalType": "address",
          "name": "",
          "type": "address"
        }
      ],
      "name": "stakingBalance",
      "outputs": [
        {
          "internalType": "uint256",
          "name": "",
          "type": "uint256"
        }
      ],
      "payable": false,
      "stateMutability": "view",
      "type": "function"
    },
    {
      "constant": true,
      "inputs": [
        {
          "internalType": "address",
          "name": "",
          "type": "address"
        }
      ],
      "name": "totalObtained",
      "outputs": [
        {
          "internalType": "uint256",
          "name": "",
          "type": "uint256"
        }
      ],
      "payable": false,
      "stateMutability": "view",
      "type": "function"
    },
    {
      "constant": true,
      "inputs": [],
      "name": "usiToken",
      "outputs": [
        {
          "internalType": "contract UsiToken",
          "name": "",
          "type": "address"
        }
      ],
      "payable": false,
      "stateMutability": "view",
      "type": "function"
    },
    {
      "constant": true,
      "inputs": [
        {
          "internalType": "address",
          "name": "_add",
          "type": "address"
        }
      ],
      "name": "getItems",
      "outputs": [
        {
          "internalType": "uint256[]",
          "name": "",
          "type": "uint256[]"
        }
      ],
      "payable": false,
      "stateMutability": "view",
      "type": "function"
    },
    {
      "constant": false,
      "inputs": [
        {
          "internalType": "uint256",
          "name": "_amount",
          "type": "uint256"
        }
      ],
      "name": "stakeTokens",
      "outputs": [],
      "payable": false,
      "stateMutability": "nonpayable",
      "type": "function"
    },
    {
      "constant": false,
      "inputs": [],
      "name": "unstakeTokens",
      "outputs": [],
      "payable": false,
      "stateMutability": "nonpayable",
      "type": "function"
    },
    {
      "constant": false,
      "inputs": [
        {
          "internalType": "uint256",
          "name": "_amount",
          "type": "uint256"
        }
      ],
      "name": "unstakeNTokens",
      "outputs": [],
      "payable": false,
      "stateMutability": "nonpayable",
      "type": "function"
    },
    {
      "constant": false,
      "inputs": [],
      "name": "issueTokens",
      "outputs": [],
      "payable": false,
      "stateMutability": "nonpayable",
      "type": "function"
    },
    {
      "constant": false,
      "inputs": [
        {
          "internalType": "uint256",
          "name": "_id",
          "type": "uint256"
        },
        {
          "internalType": "uint256",
          "name": "_price",
          "type": "uint256"
        }
      ],
      "name": "buyItem",
      "outputs": [
        {
          "internalType": "uint256[]",
          "name": "",
          "type": "uint256[]"
        }
      ],
      "payable": false,
      "stateMutability": "nonpayable",
      "type": "function"
    }
  ],
  "bytecode": "0x60806040526040518060400160405280600e81526020017f55534920546f6b656e206661726d00000000000000000000000000000000000081525060009080519060200190620000519291906200016b565b503480156200005f57600080fd5b50604051620018fd380380620018fd833981810160405260408110156200008557600080fd5b81019080805190602001909291908051906020019092919050505080600160006101000a81548173ffffffffffffffffffffffffffffffffffffffff021916908373ffffffffffffffffffffffffffffffffffffffff16021790555081600260006101000a81548173ffffffffffffffffffffffffffffffffffffffff021916908373ffffffffffffffffffffffffffffffffffffffff16021790555033600360006101000a81548173ffffffffffffffffffffffffffffffffffffffff021916908373ffffffffffffffffffffffffffffffffffffffff16021790555050506200021a565b828054600181600116156101000203166002900490600052602060002090601f016020900481019282601f10620001ae57805160ff1916838001178555620001df565b82800160010185558215620001df579182015b82811115620001de578251825591602001919060010190620001c1565b5b509050620001ee9190620001f2565b5090565b6200021791905b8082111562000213576000816000905550600101620001f9565b5090565b90565b6116d3806200022a6000396000f3fe608060405234801561001057600080fd5b50600436106100f55760003560e01c80638da5cb5b11610097578063be22f54611610066578063be22f54614610485578063c93c8f34146104cf578063cdb5b8de1461052b578063fd5e6dd114610559576100f5565b80638da5cb5b1461035a5780639979c009146103a4578063a5ce413b14610431578063b160a0161461043b576100f5565b806360ab5852116100d357806360ab58521461026e57806365c199c9146102785780636f49712b146102d05780637547c7a31461032c576100f5565b806306fdde03146100fa57806345bc78ab1461017d5780634d736655146101d5575b600080fd5b6101026105c7565b6040518080602001828103825283818151815260200191508051906020019080838360005b83811015610142578082015181840152602081019050610127565b50505050905090810190601f16801561016f5780820380516001836020036101000a031916815260200191505b509250505060405180910390f35b6101bf6004803603602081101561019357600080fd5b81019080803573ffffffffffffffffffffffffffffffffffffffff169060200190929190505050610665565b6040518082815260200191505060405180910390f35b610217600480360360208110156101eb57600080fd5b81019080803573ffffffffffffffffffffffffffffffffffffffff16906020019092919050505061067d565b6040518080602001828103825283818151815260200191508051906020019060200280838360005b8381101561025a57808201518184015260208101905061023f565b505050509050019250505060405180910390f35b610276610717565b005b6102ba6004803603602081101561028e57600080fd5b81019080803573ffffffffffffffffffffffffffffffffffffffff169060200190929190505050610a07565b6040518082815260200191505060405180910390f35b610312600480360360208110156102e657600080fd5b81019080803573ffffffffffffffffffffffffffffffffffffffff169060200190929190505050610a1f565b604051808215151515815260200191505060405180910390f35b6103586004803603602081101561034257600080fd5b8101908080359060200190929190505050610a3f565b005b610362610dbe565b604051808273ffffffffffffffffffffffffffffffffffffffff1673ffffffffffffffffffffffffffffffffffffffff16815260200191505060405180910390f35b6103da600480360360408110156103ba57600080fd5b810190808035906020019092919080359060200190929190505050610de4565b6040518080602001828103825283818151815260200191508051906020019060200280838360005b8381101561041d578082015181840152602081019050610402565b505050509050019250505060405180910390f35b6104396110e9565b005b610443611328565b604051808273ffffffffffffffffffffffffffffffffffffffff1673ffffffffffffffffffffffffffffffffffffffff16815260200191505060405180910390f35b61048d61134e565b604051808273ffffffffffffffffffffffffffffffffffffffff1673ffffffffffffffffffffffffffffffffffffffff16815260200191505060405180910390f35b610511600480360360208110156104e557600080fd5b81019080803573ffffffffffffffffffffffffffffffffffffffff169060200190929190505050611374565b604051808215151515815260200191505060405180910390f35b6105576004803603602081101561054157600080fd5b8101908080359060200190929190505050611394565b005b6105856004803603602081101561056f57600080fd5b810190808035906020019092919050505061163f565b604051808273ffffffffffffffffffffffffffffffffffffffff1673ffffffffffffffffffffffffffffffffffffffff16815260200191505060405180910390f35b60008054600181600116156101000203166002900480601f01602080910402602001604051908101604052809291908181526020018280546001816001161561010002031660029004801561065d5780601f106106325761010080835404028352916020019161065d565b820191906000526020600020905b81548152906001019060200180831161064057829003601f168201915b505050505081565b60056020528060005260406000206000915090505481565b6060600960008373ffffffffffffffffffffffffffffffffffffffff1673ffffffffffffffffffffffffffffffffffffffff16815260200190815260200160002060000180548060200260200160405190810160405280929190818152602001828054801561070b57602002820191906000526020600020905b8154815260200190600101908083116106f7575b50505050509050919050565b600360009054906101000a900473ffffffffffffffffffffffffffffffffffffffff1673ffffffffffffffffffffffffffffffffffffffff163373ffffffffffffffffffffffffffffffffffffffff16146107da576040517f08c379a00000000000000000000000000000000000000000000000000000000081526004018080602001828103825260188152602001807f63616c6c6572206d75737420626520746865206f776e6572000000000000000081525060200191505060405180910390fd5b60008090505b600480549050811015610a04576000600482815481106107fc57fe5b9060005260206000200160009054906101000a900473ffffffffffffffffffffffffffffffffffffffff1690506000600560008373ffffffffffffffffffffffffffffffffffffffff1673ffffffffffffffffffffffffffffffffffffffff16815260200190815260200160002054905060008111156109f557600260009054906101000a900473ffffffffffffffffffffffffffffffffffffffff1673ffffffffffffffffffffffffffffffffffffffff1663a9059cbb83600284816108bf57fe5b046040518363ffffffff1660e01b8152600401808373ffffffffffffffffffffffffffffffffffffffff1673ffffffffffffffffffffffffffffffffffffffff16815260200182815260200192505050602060405180830381600087803b15801561092957600080fd5b505af115801561093d573d6000803e3d6000fd5b505050506040513d602081101561095357600080fd5b8101908080519060200190929190505050506002818161096f57fe5b04600860008473ffffffffffffffffffffffffffffffffffffffff1673ffffffffffffffffffffffffffffffffffffffff1681526020019081526020016000205401600860008473ffffffffffffffffffffffffffffffffffffffff1673ffffffffffffffffffffffffffffffffffffffff168152602001908152602001600020819055505b505080806001019150506107e0565b50565b60086020528060005260406000206000915090505481565b60076020528060005260406000206000915054906101000a900460ff1681565b60008111610ab5576040517f08c379a00000000000000000000000000000000000000000000000000000000081526004018080602001828103825260128152602001807f616d6f756e742063616e6e6f742062652030000000000000000000000000000081525060200191505060405180910390fd5b600160009054906101000a900473ffffffffffffffffffffffffffffffffffffffff1673ffffffffffffffffffffffffffffffffffffffff166323b872dd3330846040518463ffffffff1660e01b8152600401808473ffffffffffffffffffffffffffffffffffffffff1673ffffffffffffffffffffffffffffffffffffffff1681526020018373ffffffffffffffffffffffffffffffffffffffff1673ffffffffffffffffffffffffffffffffffffffff1681526020018281526020019350505050602060405180830381600087803b158015610b9257600080fd5b505af1158015610ba6573d6000803e3d6000fd5b505050506040513d6020811015610bbc57600080fd5b81019080805190602001909291905050505080600560003373ffffffffffffffffffffffffffffffffffffffff1673ffffffffffffffffffffffffffffffffffffffff1681526020019081526020016000205401600560003373ffffffffffffffffffffffffffffffffffffffff1673ffffffffffffffffffffffffffffffffffffffff16815260200190815260200160002081905550600660003373ffffffffffffffffffffffffffffffffffffffff1673ffffffffffffffffffffffffffffffffffffffff16815260200190815260200160002060009054906101000a900460ff16610d0b5760043390806001815401808255809150509060018203906000526020600020016000909192909190916101000a81548173ffffffffffffffffffffffffffffffffffffffff021916908373ffffffffffffffffffffffffffffffffffffffff160217905550505b6001600760003373ffffffffffffffffffffffffffffffffffffffff1673ffffffffffffffffffffffffffffffffffffffff16815260200190815260200160002060006101000a81548160ff0219169083151502179055506001600660003373ffffffffffffffffffffffffffffffffffffffff1673ffffffffffffffffffffffffffffffffffffffff16815260200190815260200160002060006101000a81548160ff02191690831515021790555050565b600360009054906101000a900473ffffffffffffffffffffffffffffffffffffffff1681565b606081600260009054906101000a900473ffffffffffffffffffffffffffffffffffffffff1673ffffffffffffffffffffffffffffffffffffffff166370a08231336040518263ffffffff1660e01b8152600401808273ffffffffffffffffffffffffffffffffffffffff1673ffffffffffffffffffffffffffffffffffffffff16815260200191505060206040518083038186803b158015610e8657600080fd5b505afa158015610e9a573d6000803e3d6000fd5b505050506040513d6020811015610eb057600080fd5b810190808051906020019092919050505011610ecb57600080fd5b600260009054906101000a900473ffffffffffffffffffffffffffffffffffffffff1673ffffffffffffffffffffffffffffffffffffffff166323b872dd3330856040518463ffffffff1660e01b8152600401808473ffffffffffffffffffffffffffffffffffffffff1673ffffffffffffffffffffffffffffffffffffffff1681526020018373ffffffffffffffffffffffffffffffffffffffff1673ffffffffffffffffffffffffffffffffffffffff1681526020018281526020019350505050602060405180830381600087803b158015610fa857600080fd5b505af1158015610fbc573d6000803e3d6000fd5b505050506040513d6020811015610fd257600080fd5b810190808051906020019092919050505050600960003373ffffffffffffffffffffffffffffffffffffffff1673ffffffffffffffffffffffffffffffffffffffff168152602001908152602001600020600001839080600181540180825580915050906001820390600052602060002001600090919290919091505550600960003373ffffffffffffffffffffffffffffffffffffffff1673ffffffffffffffffffffffffffffffffffffffff1681526020019081526020016000206000018054806020026020016040519081016040528092919081815260200182805480156110dc57602002820191906000526020600020905b8154815260200190600101908083116110c8575b5050505050905092915050565b6000600560003373ffffffffffffffffffffffffffffffffffffffff1673ffffffffffffffffffffffffffffffffffffffff168152602001908152602001600020549050600081116111a3576040517f08c379a000000000000000000000000000000000000000000000000000000000815260040180806020018281038252601b8152602001807f7374616b696e672062616c616e63652063616e6e6f742062652030000000000081525060200191505060405180910390fd5b600160009054906101000a900473ffffffffffffffffffffffffffffffffffffffff1673ffffffffffffffffffffffffffffffffffffffff1663a9059cbb33836040518363ffffffff1660e01b8152600401808373ffffffffffffffffffffffffffffffffffffffff1673ffffffffffffffffffffffffffffffffffffffff16815260200182815260200192505050602060405180830381600087803b15801561124c57600080fd5b505af1158015611260573d6000803e3d6000fd5b505050506040513d602081101561127657600080fd5b8101908080519060200190929190505050506000600560003373ffffffffffffffffffffffffffffffffffffffff1673ffffffffffffffffffffffffffffffffffffffff168152602001908152602001600020819055506000600760003373ffffffffffffffffffffffffffffffffffffffff1673ffffffffffffffffffffffffffffffffffffffff16815260200190815260200160002060006101000a81548160ff02191690831515021790555050565b600260009054906101000a900473ffffffffffffffffffffffffffffffffffffffff1681565b600160009054906101000a900473ffffffffffffffffffffffffffffffffffffffff1681565b60066020528060005260406000206000915054906101000a900460ff1681565b6000600560003373ffffffffffffffffffffffffffffffffffffffff1673ffffffffffffffffffffffffffffffffffffffff168152602001908152602001600020549050818111611430576040517f08c379a000000000000000000000000000000000000000000000000000000000815260040180806020018281038252602381526020018061167c6023913960400191505060405180910390fd5b600160009054906101000a900473ffffffffffffffffffffffffffffffffffffffff1673ffffffffffffffffffffffffffffffffffffffff1663a9059cbb33846040518363ffffffff1660e01b8152600401808373ffffffffffffffffffffffffffffffffffffffff1673ffffffffffffffffffffffffffffffffffffffff16815260200182815260200192505050602060405180830381600087803b1580156114d957600080fd5b505af11580156114ed573d6000803e3d6000fd5b505050506040513d602081101561150357600080fd5b81019080805190602001909291905050505081600560003373ffffffffffffffffffffffffffffffffffffffff1673ffffffffffffffffffffffffffffffffffffffff1681526020019081526020016000205403600560003373ffffffffffffffffffffffffffffffffffffffff1673ffffffffffffffffffffffffffffffffffffffff168152602001908152602001600020819055506000600560003373ffffffffffffffffffffffffffffffffffffffff1673ffffffffffffffffffffffffffffffffffffffff16815260200190815260200160002054141561163b576000600760003373ffffffffffffffffffffffffffffffffffffffff1673ffffffffffffffffffffffffffffffffffffffff16815260200190815260200160002060006101000a81548160ff0219169083151502179055505b5050565b6004818154811061164c57fe5b906000526020600020016000915054906101000a900473ffffffffffffffffffffffffffffffffffffffff168156fe7374616b696e672062616c616e63652067726561746572207468616e20616d6f756e74a265627a7a7231582045c80f6ff1b1ab9ff28869cebf07fc87a031ca3bdcac7fa00d21a82c2b47f8b464736f6c63430005100032",
  "source": "pragma solidity >=0.5.0;\n\n//importare i token che ci servono qua\nimport \"./UsiToken.sol\";\nimport \"./DaiToken.sol\";\n\ncontract TokenFarm {\n    //all code of the contract goes here\n\n    //quando creiamo una variabile state come qua, che é nello smart contract, il suo valore sará salvato nella blockchain,\n    //essendo pubblica potremo accedervi da fuori\n    string public name = \"USI Token farm\";\n\n    DaiToken public daiToken; //due variabili che assegnamo gli indirizzi tramite costruttore, servono per tutto lo smart contract\n    UsiToken public usiToken;\n    address public owner;\n\n    struct itemsBought {\n        uint256[] x;\n    }\n\n\n    address[] public stakers; //keep track of all the address that have ever staked\n    mapping(address => uint256) public stakingBalance; //quanto balance ha in staking ognuno\n    mapping(address => bool) public hasStaked; //\n    mapping(address => bool) public isStaking; //keep\n    mapping(address => uint256) public totalObtained;\n    mapping(address => itemsBought) itemsBuyed;\n\n    //mapping(address => items) itemsBuyed;\n\n    //this function is going to be executed only once when it depoloy on the network\n    //ci servono gli address dei due token usi e dai li diamo in parametro\n    constructor(UsiToken _usiToken, DaiToken _daiToken) public {\n        daiToken = _daiToken;\n        usiToken = _usiToken;\n        //dichiaro owner, colui che deploy lo smart contract, solo lui puo dare i rewards.\n        owner = msg.sender;\n    }\n    function getItems(address _add) public view returns(uint[] memory){\n        return itemsBuyed[_add].x;\n    }\n    // staking function, qua l investitore mette i dai nell app che gli daranno rewards in usitoken tipo un deposito di denaro\n    function stakeTokens(uint256 _amount) public {\n        //se falso require stoppa tutto e da exception, altrimenti va avanti\n        require(_amount > 0, \"amount cannot be 0\");\n\n        //transfert dai from the user to this contract for staking\n        daiToken.transferFrom(msg.sender, address(this), _amount);\n\n        stakingBalance[msg.sender] = stakingBalance[msg.sender] + _amount;\n\n        //se nn ha mai fatto staking aggiungilo all array per nn avere errori di puntatore inesistente\n        if (!hasStaked[msg.sender]) {\n            stakers.push(msg.sender);\n        }\n        isStaking[msg.sender] = true;\n        hasStaked[msg.sender] = true;\n    }\n\n    //unstaking token, toglierlo dallo staking un prelevo di denaro tipo\n\n    function unstakeTokens() public {\n        uint256 balance = stakingBalance[msg.sender];\n        require(balance > 0, \"staking balance cannot be 0\");\n\n        //transfer token from the app to the user\n        daiToken.transfer(msg.sender, balance);\n\n        stakingBalance[msg.sender] = 0;\n\n        isStaking[msg.sender] = false;\n    }\n\n    function unstakeNTokens(uint256 _amount) public {\n        uint256 balance = stakingBalance[msg.sender];\n        require(balance > _amount, \"staking balance greater than amount\");\n\n        //transfer token from the app to the user\n        daiToken.transfer(msg.sender, _amount);\n\n        stakingBalance[msg.sender] = stakingBalance[msg.sender] - _amount;\n        if (stakingBalance[msg.sender] == 0) {\n            isStaking[msg.sender] = false;\n        }\n    }\n\n    //issuing token guadagnere interesssi.\n    function issueTokens() public {\n        //nn deve poterla eseguire chiunque ma solo il proprietario del contratto quindi metto req\n        //il proprietario deve chiamarla ogni tot, ogni gorno sett blocco o ecc\n        require(msg.sender == owner, \"caller must be the owner\");\n\n        //rewards in base a quanto depositano, se depositano mille gli diamo mille\n        for (uint256 i = 0; i < stakers.length; i++) {\n            address recipient = stakers[i];\n            uint256 balance = stakingBalance[recipient];\n            if (balance > 0) {\n                usiToken.transfer(recipient, (balance / 2));\n                totalObtained[recipient] =\n                    totalObtained[recipient] +\n                    (balance / 2);\n            }\n        }\n    }\n\n    function buyItem(uint _id, uint _price) public returns(uint[] memory) {\n        require(usiToken.balanceOf(msg.sender) > _price);\n        usiToken.transferFrom(msg.sender, address(this), _price);\n        // itemsBuyed[msg.sender].push(_id);\n        itemsBuyed[msg.sender].x.push(_id);\n        return itemsBuyed[msg.sender].x;\n    }\n}\n",
  "sourcePath": "/Users/galaron/Desktop/Loyalty-DApp/src/contracts/TokenFarm.sol",
  "compiler": {
    "name": "solc",
    "version": "0.5.16+commit.9c3226ce.Emscripten.clang"
  },
  "schemaVersion": "3.4.3",
  "updatedAt": "2021-12-20T13:33:41.456Z",
  "networkType": "ethereum",
  "devdoc": {
    "methods": {}
  },
  "userdoc": {
    "methods": {}
  }
}