{
  "contractName": "TokenFarm",
  "abi": [
    {
      "inputs": [
        {
          "internalType": "contract UsiToken",
          "name": "_usiToken",
          "type": "address"
        },
        {
          "internalType": "contract DaiToken",
          "name": "_daiToken",
          "type": "address"
        }
      ],
      "payable": false,
      "stateMutability": "nonpayable",
      "type": "constructor"
    },
    {
      "constant": true,
      "inputs": [],
      "name": "daiToken",
      "outputs": [
        {
          "internalType": "contract DaiToken",
          "name": "",
          "type": "address"
        }
      ],
      "payable": false,
      "stateMutability": "view",
      "type": "function"
    },
    {
      "constant": true,
      "inputs": [
        {
          "internalType": "address",
          "name": "",
          "type": "address"
        }
      ],
      "name": "hasStaked",
      "outputs": [
        {
          "internalType": "bool",
          "name": "",
          "type": "bool"
        }
      ],
      "payable": false,
      "stateMutability": "view",
      "type": "function"
    },
    {
      "constant": true,
      "inputs": [
        {
          "internalType": "address",
          "name": "",
          "type": "address"
        }
      ],
      "name": "isStaking",
      "outputs": [
        {
          "internalType": "bool",
          "name": "",
          "type": "bool"
        }
      ],
      "payable": false,
      "stateMutability": "view",
      "type": "function"
    },
    {
      "constant": true,
      "inputs": [],
      "name": "name",
      "outputs": [
        {
          "internalType": "string",
          "name": "",
          "type": "string"
        }
      ],
      "payable": false,
      "stateMutability": "view",
      "type": "function"
    },
    {
      "constant": true,
      "inputs": [],
      "name": "owner",
      "outputs": [
        {
          "internalType": "address",
          "name": "",
          "type": "address"
        }
      ],
      "payable": false,
      "stateMutability": "view",
      "type": "function"
    },
    {
      "constant": true,
      "inputs": [
        {
          "internalType": "uint256",
          "name": "",
          "type": "uint256"
        }
      ],
      "name": "stakers",
      "outputs": [
        {
          "internalType": "address",
          "name": "",
          "type": "address"
        }
      ],
      "payable": false,
      "stateMutability": "view",
      "type": "function"
    },
    {
      "constant": true,
      "inputs": [
        {
          "internalType": "address",
          "name": "",
          "type": "address"
        }
      ],
      "name": "stakingBalance",
      "outputs": [
        {
          "internalType": "uint256",
          "name": "",
          "type": "uint256"
        }
      ],
      "payable": false,
      "stateMutability": "view",
      "type": "function"
    },
    {
      "constant": true,
      "inputs": [
        {
          "internalType": "address",
          "name": "",
          "type": "address"
        }
      ],
      "name": "totalObtained",
      "outputs": [
        {
          "internalType": "uint256",
          "name": "",
          "type": "uint256"
        }
      ],
      "payable": false,
      "stateMutability": "view",
      "type": "function"
    },
    {
      "constant": true,
      "inputs": [],
      "name": "usiToken",
      "outputs": [
        {
          "internalType": "contract UsiToken",
          "name": "",
          "type": "address"
        }
      ],
      "payable": false,
      "stateMutability": "view",
      "type": "function"
    },
    {
      "constant": false,
      "inputs": [
        {
          "internalType": "uint256",
          "name": "_amount",
          "type": "uint256"
        }
      ],
      "name": "stakeTokens",
      "outputs": [],
      "payable": false,
      "stateMutability": "nonpayable",
      "type": "function"
    },
    {
      "constant": false,
      "inputs": [],
      "name": "unstakeTokens",
      "outputs": [],
      "payable": false,
      "stateMutability": "nonpayable",
      "type": "function"
    },
    {
      "constant": false,
      "inputs": [
        {
          "internalType": "uint256",
          "name": "_amount",
          "type": "uint256"
        }
      ],
      "name": "unstakeNTokens",
      "outputs": [],
      "payable": false,
      "stateMutability": "nonpayable",
      "type": "function"
    },
    {
      "constant": false,
      "inputs": [],
      "name": "issueTokens",
      "outputs": [],
      "payable": false,
      "stateMutability": "nonpayable",
      "type": "function"
    }
  ],
  "bytecode": "0x60806040526040518060400160405280600e81526020017f55534920546f6b656e206661726d00000000000000000000000000000000000081525060009080519060200190620000519291906200016b565b503480156200005f57600080fd5b506040516200141238038062001412833981810160405260408110156200008557600080fd5b81019080805190602001909291908051906020019092919050505080600160006101000a81548173ffffffffffffffffffffffffffffffffffffffff021916908373ffffffffffffffffffffffffffffffffffffffff16021790555081600260006101000a81548173ffffffffffffffffffffffffffffffffffffffff021916908373ffffffffffffffffffffffffffffffffffffffff16021790555033600360006101000a81548173ffffffffffffffffffffffffffffffffffffffff021916908373ffffffffffffffffffffffffffffffffffffffff16021790555050506200021a565b828054600181600116156101000203166002900490600052602060002090601f016020900481019282601f10620001ae57805160ff1916838001178555620001df565b82800160010185558215620001df579182015b82811115620001de578251825591602001919060010190620001c1565b5b509050620001ee9190620001f2565b5090565b6200021791905b8082111562000213576000816000905550600101620001f9565b5090565b90565b6111e8806200022a6000396000f3fe608060405234801561001057600080fd5b50600436106100cf5760003560e01c80638da5cb5b1161008c578063be22f54611610066578063be22f54614610339578063c93c8f3414610383578063cdb5b8de146103df578063fd5e6dd11461040d576100cf565b80638da5cb5b1461029b578063a5ce413b146102e5578063b160a016146102ef576100cf565b806306fdde03146100d457806345bc78ab1461015757806360ab5852146101af57806365c199c9146101b95780636f49712b146102115780637547c7a31461026d575b600080fd5b6100dc61047b565b6040518080602001828103825283818151815260200191508051906020019080838360005b8381101561011c578082015181840152602081019050610101565b50505050905090810190601f1680156101495780820380516001836020036101000a031916815260200191505b509250505060405180910390f35b6101996004803603602081101561016d57600080fd5b81019080803573ffffffffffffffffffffffffffffffffffffffff169060200190929190505050610519565b6040518082815260200191505060405180910390f35b6101b7610531565b005b6101fb600480360360208110156101cf57600080fd5b81019080803573ffffffffffffffffffffffffffffffffffffffff169060200190929190505050610821565b6040518082815260200191505060405180910390f35b6102536004803603602081101561022757600080fd5b81019080803573ffffffffffffffffffffffffffffffffffffffff169060200190929190505050610839565b604051808215151515815260200191505060405180910390f35b6102996004803603602081101561028357600080fd5b8101908080359060200190929190505050610859565b005b6102a3610bd8565b604051808273ffffffffffffffffffffffffffffffffffffffff1673ffffffffffffffffffffffffffffffffffffffff16815260200191505060405180910390f35b6102ed610bfe565b005b6102f7610e3d565b604051808273ffffffffffffffffffffffffffffffffffffffff1673ffffffffffffffffffffffffffffffffffffffff16815260200191505060405180910390f35b610341610e63565b604051808273ffffffffffffffffffffffffffffffffffffffff1673ffffffffffffffffffffffffffffffffffffffff16815260200191505060405180910390f35b6103c56004803603602081101561039957600080fd5b81019080803573ffffffffffffffffffffffffffffffffffffffff169060200190929190505050610e89565b604051808215151515815260200191505060405180910390f35b61040b600480360360208110156103f557600080fd5b8101908080359060200190929190505050610ea9565b005b6104396004803603602081101561042357600080fd5b8101908080359060200190929190505050611154565b604051808273ffffffffffffffffffffffffffffffffffffffff1673ffffffffffffffffffffffffffffffffffffffff16815260200191505060405180910390f35b60008054600181600116156101000203166002900480601f0160208091040260200160405190810160405280929190818152602001828054600181600116156101000203166002900480156105115780601f106104e657610100808354040283529160200191610511565b820191906000526020600020905b8154815290600101906020018083116104f457829003601f168201915b505050505081565b60056020528060005260406000206000915090505481565b600360009054906101000a900473ffffffffffffffffffffffffffffffffffffffff1673ffffffffffffffffffffffffffffffffffffffff163373ffffffffffffffffffffffffffffffffffffffff16146105f4576040517f08c379a00000000000000000000000000000000000000000000000000000000081526004018080602001828103825260188152602001807f63616c6c6572206d75737420626520746865206f776e6572000000000000000081525060200191505060405180910390fd5b60008090505b60048054905081101561081e5760006004828154811061061657fe5b9060005260206000200160009054906101000a900473ffffffffffffffffffffffffffffffffffffffff1690506000600560008373ffffffffffffffffffffffffffffffffffffffff1673ffffffffffffffffffffffffffffffffffffffff168152602001908152602001600020549050600081111561080f57600260009054906101000a900473ffffffffffffffffffffffffffffffffffffffff1673ffffffffffffffffffffffffffffffffffffffff1663a9059cbb83600284816106d957fe5b046040518363ffffffff1660e01b8152600401808373ffffffffffffffffffffffffffffffffffffffff1673ffffffffffffffffffffffffffffffffffffffff16815260200182815260200192505050602060405180830381600087803b15801561074357600080fd5b505af1158015610757573d6000803e3d6000fd5b505050506040513d602081101561076d57600080fd5b8101908080519060200190929190505050506002818161078957fe5b04600860008473ffffffffffffffffffffffffffffffffffffffff1673ffffffffffffffffffffffffffffffffffffffff1681526020019081526020016000205401600860008473ffffffffffffffffffffffffffffffffffffffff1673ffffffffffffffffffffffffffffffffffffffff168152602001908152602001600020819055505b505080806001019150506105fa565b50565b60086020528060005260406000206000915090505481565b60076020528060005260406000206000915054906101000a900460ff1681565b600081116108cf576040517f08c379a00000000000000000000000000000000000000000000000000000000081526004018080602001828103825260128152602001807f616d6f756e742063616e6e6f742062652030000000000000000000000000000081525060200191505060405180910390fd5b600160009054906101000a900473ffffffffffffffffffffffffffffffffffffffff1673ffffffffffffffffffffffffffffffffffffffff166323b872dd3330846040518463ffffffff1660e01b8152600401808473ffffffffffffffffffffffffffffffffffffffff1673ffffffffffffffffffffffffffffffffffffffff1681526020018373ffffffffffffffffffffffffffffffffffffffff1673ffffffffffffffffffffffffffffffffffffffff1681526020018281526020019350505050602060405180830381600087803b1580156109ac57600080fd5b505af11580156109c0573d6000803e3d6000fd5b505050506040513d60208110156109d657600080fd5b81019080805190602001909291905050505080600560003373ffffffffffffffffffffffffffffffffffffffff1673ffffffffffffffffffffffffffffffffffffffff1681526020019081526020016000205401600560003373ffffffffffffffffffffffffffffffffffffffff1673ffffffffffffffffffffffffffffffffffffffff16815260200190815260200160002081905550600660003373ffffffffffffffffffffffffffffffffffffffff1673ffffffffffffffffffffffffffffffffffffffff16815260200190815260200160002060009054906101000a900460ff16610b255760043390806001815401808255809150509060018203906000526020600020016000909192909190916101000a81548173ffffffffffffffffffffffffffffffffffffffff021916908373ffffffffffffffffffffffffffffffffffffffff160217905550505b6001600760003373ffffffffffffffffffffffffffffffffffffffff1673ffffffffffffffffffffffffffffffffffffffff16815260200190815260200160002060006101000a81548160ff0219169083151502179055506001600660003373ffffffffffffffffffffffffffffffffffffffff1673ffffffffffffffffffffffffffffffffffffffff16815260200190815260200160002060006101000a81548160ff02191690831515021790555050565b600360009054906101000a900473ffffffffffffffffffffffffffffffffffffffff1681565b6000600560003373ffffffffffffffffffffffffffffffffffffffff1673ffffffffffffffffffffffffffffffffffffffff16815260200190815260200160002054905060008111610cb8576040517f08c379a000000000000000000000000000000000000000000000000000000000815260040180806020018281038252601b8152602001807f7374616b696e672062616c616e63652063616e6e6f742062652030000000000081525060200191505060405180910390fd5b600160009054906101000a900473ffffffffffffffffffffffffffffffffffffffff1673ffffffffffffffffffffffffffffffffffffffff1663a9059cbb33836040518363ffffffff1660e01b8152600401808373ffffffffffffffffffffffffffffffffffffffff1673ffffffffffffffffffffffffffffffffffffffff16815260200182815260200192505050602060405180830381600087803b158015610d6157600080fd5b505af1158015610d75573d6000803e3d6000fd5b505050506040513d6020811015610d8b57600080fd5b8101908080519060200190929190505050506000600560003373ffffffffffffffffffffffffffffffffffffffff1673ffffffffffffffffffffffffffffffffffffffff168152602001908152602001600020819055506000600760003373ffffffffffffffffffffffffffffffffffffffff1673ffffffffffffffffffffffffffffffffffffffff16815260200190815260200160002060006101000a81548160ff02191690831515021790555050565b600260009054906101000a900473ffffffffffffffffffffffffffffffffffffffff1681565b600160009054906101000a900473ffffffffffffffffffffffffffffffffffffffff1681565b60066020528060005260406000206000915054906101000a900460ff1681565b6000600560003373ffffffffffffffffffffffffffffffffffffffff1673ffffffffffffffffffffffffffffffffffffffff168152602001908152602001600020549050818111610f45576040517f08c379a00000000000000000000000000000000000000000000000000000000081526004018080602001828103825260238152602001806111916023913960400191505060405180910390fd5b600160009054906101000a900473ffffffffffffffffffffffffffffffffffffffff1673ffffffffffffffffffffffffffffffffffffffff1663a9059cbb33846040518363ffffffff1660e01b8152600401808373ffffffffffffffffffffffffffffffffffffffff1673ffffffffffffffffffffffffffffffffffffffff16815260200182815260200192505050602060405180830381600087803b158015610fee57600080fd5b505af1158015611002573d6000803e3d6000fd5b505050506040513d602081101561101857600080fd5b81019080805190602001909291905050505081600560003373ffffffffffffffffffffffffffffffffffffffff1673ffffffffffffffffffffffffffffffffffffffff1681526020019081526020016000205403600560003373ffffffffffffffffffffffffffffffffffffffff1673ffffffffffffffffffffffffffffffffffffffff168152602001908152602001600020819055506000600560003373ffffffffffffffffffffffffffffffffffffffff1673ffffffffffffffffffffffffffffffffffffffff168152602001908152602001600020541415611150576000600760003373ffffffffffffffffffffffffffffffffffffffff1673ffffffffffffffffffffffffffffffffffffffff16815260200190815260200160002060006101000a81548160ff0219169083151502179055505b5050565b6004818154811061116157fe5b906000526020600020016000915054906101000a900473ffffffffffffffffffffffffffffffffffffffff168156fe7374616b696e672062616c616e63652067726561746572207468616e20616d6f756e74a265627a7a723158204339d4e804c2310a5d5fd7f03de122215cfba8d535a7cd21030d51077703c09364736f6c63430005100032",
  "source": "pragma solidity >=0.5.0;\n\n\n//importare i token che ci servono qua \nimport \"./UsiToken.sol\";\nimport \"./DaiToken.sol\";\n\ncontract TokenFarm{\n    //all code of the contract goes here\n\n    //quando creiamo una variabile state come qua, che é nello smart contract, il suo valore sará salvato nella blockchain,\n    //essendo pubblica potremo accedervi da fuori\n    string public name =\"USI Token farm\";\n    \n    DaiToken public daiToken; //due variabili che assegnamo gli indirizzi tramite costruttore, servono per tutto lo smart contract\n    UsiToken public usiToken;\n    address public owner;\n\n    address[] public stakers;  //keep track of all the address that have ever staked\n    mapping(address => uint) public stakingBalance; //quanto balance ha in staking ognuno \n    mapping(address => bool) public hasStaked;  //\n    mapping(address => bool) public isStaking; //keep \n    mapping(address => uint) public totalObtained;\n\n    //this function is going to be executed only once when it depoloy on the network\n    //ci servono gli address dei due token usi e dai li diamo in parametro\n    constructor(UsiToken _usiToken, DaiToken _daiToken) public {\n        daiToken = _daiToken;\n        usiToken = _usiToken;\n        //dichiaro owner, colui che deploy lo smart contract, solo lui puo dare i rewards.\n        owner = msg.sender;\n    }\n\n\n\n\n    // staking function, qua l investitore mette i dai nell app che gli daranno rewards in usitoken tipo un deposito di denaro\n    function stakeTokens(uint _amount) public{\n        //se falso require stoppa tutto e da exception, altrimenti va avanti\n        require(_amount>0,\"amount cannot be 0\");\n\n        //transfert dai from the user to this contract for staking\n        daiToken.transferFrom(msg.sender, address(this), _amount);\n\n        stakingBalance[msg.sender] = stakingBalance[msg.sender] + _amount;\n\n        //se nn ha mai fatto staking aggiungilo all array per nn avere errori di puntatore inesistente\n        if(!hasStaked[msg.sender]){\n            stakers.push(msg.sender);\n        }\n        isStaking[msg.sender] = true;\n        hasStaked[msg.sender] = true;\n\n    }\n\n\n    //unstaking token, toglierlo dallo staking un prelevo di denaro tipo\n\n    function unstakeTokens() public{\n        uint balance = stakingBalance[msg.sender];\n        require (balance >0, \"staking balance cannot be 0\");\n\n        //transfer token from the app to the user\n        daiToken.transfer(msg.sender, balance);\n\n        stakingBalance[msg.sender] =0;\n\n        isStaking[msg.sender] = false;\n    }\n\n    function unstakeNTokens(uint _amount) public{\n        uint balance = stakingBalance[msg.sender];\n        require (balance > _amount, \"staking balance greater than amount\");\n\n        //transfer token from the app to the user\n        daiToken.transfer(msg.sender, _amount);\n\n        stakingBalance[msg.sender] = stakingBalance[msg.sender] - _amount;\n        if(stakingBalance[msg.sender]==0){\n             isStaking[msg.sender] = false;\n        }\n    }\n\n    //issuing token guadagnere interesssi.\n    function issueTokens() public{\n\n        //nn deve poterla eseguire chiunque ma solo il proprietario del contratto quindi metto req\n        //il proprietario deve chiamarla ogni tot, ogni gorno sett blocco o ecc\n        require(msg.sender == owner, \"caller must be the owner\");\n\n        //rewards in base a quanto depositano, se depositano mille gli diamo mille\n        for (uint i=0; i < stakers.length; i++){\n            address recipient = stakers[i];\n            uint balance = stakingBalance[recipient];\n            if(balance>0){\n                usiToken.transfer(recipient,(balance/2));\n                totalObtained[recipient]=totalObtained[recipient]+(balance/2);\n            }\n        }\n    }\n}\n\n",
  "sourcePath": "/Users/simi/Desktop/prova/Loyalty-DApp/src/contracts/TokenFarm.sol",
  "compiler": {
    "name": "solc",
    "version": "0.5.16+commit.9c3226ce.Emscripten.clang"
  },
  "schemaVersion": "3.2.3",
  "updatedAt": "2021-12-19T18:50:40.947Z",
  "networkType": "ethereum",
  "devdoc": {
    "methods": {}
  },
  "userdoc": {
    "methods": {}
  }
}